:100000000C942A000C9447000C9447000C94470071
:100010000C9447000C9447000C9447000C94470044
:100020000C9447000C9447000C9447000C94470034
:100030000C9447000C9447000C9447000C94470024
:100040000C9447000C9447000C9447000C94470014
:100050000C94470011241FBECFE5D8E0DEBFCDBF12
:1000600010E0A0E6B0E0E4E4FBE002C005900D92F1
:10007000A636B107D9F710E0A6E6B0E001C01D92A0
:10008000A636B107E1F70E9460000C94A0050C941D
:1000900000003E9A3F9A379A389839983A983B9898
:1000A0003C9A319A329A0895369A3699FECF349A0C
:1000B00084B190E045B1342F20E0822B932B08953A
:1000C0000E9449000E94D90380E690E00E946004EB
:1000D0000F2EFAE0EF2EFF24F02D0F2EFCEDCF2E89
:1000E000F5E0DF2EF02D0E945400BC0180E090E08E
:1000F0000E949B0420E030E040E255E40E940105AC
:1001000020E030E040E85AE30E9401050E946F04BD
:1001100085E06D3D780790F1CB018C5D9540B7018E
:100120000E948C05162FC62FD72F81E066E00E9413
:10013000C103CA30D10570F4812F805D0E94340460
:100140008FED0E94340483E40E94340480E20E9414
:100150003404C9CFCE01B7010E948C05C82F862F69
:10016000805D0E9434048C2F805D0E9434048FEDEA
:100170000E94340483E40E943404B5CFC601861B78
:10018000970BB7010E948C05162FC62FD72F81E041
:1001900066E00E94C103CA30D10588F48DE20E9456
:1001A0003404812F805D0E9434048FED0E9434045A
:1001B00083E40E94340480E20E94340494CF8DE2F0
:1001C0000E943404CE01B7010E948C05C82F862FEF
:1001D000805D0E9434048C2F805D0E9434048FED7A
:1001E0000E94340483E40E9434047DCF843409F4F3
:1001F00071C0853448F4823499F1833408F04DC0DD
:10020000813409F083C00FC0823651F1833620F467
:10021000813609F07BC007C0833609F43EC08436BE
:1002200009F074C057C0413069F42AB381E090E00E
:10023000AC0102C0440F551F6A95E2F7BA01622B68
:100240006ABB08952AB381E090E0AC0102C0440F7C
:10025000551F6A95E2F7BA01609562236ABB08955B
:10026000413069F427B381E090E0AC0102C0440F53
:10027000551F6A95E2F7BA01622B67BB089527B351
:1002800081E090E0AC0102C0440F551F6A95E2F78F
:10029000BA016095622367BB0895413069F424B3C5
:1002A00081E090E0AC0102C0440F551F6A95E2F76F
:1002B000BA01622B64BB089524B381E090E0AC01E5
:1002C00002C0440F551F6A95E2F7BA016095622398
:1002D00064BB0895413069F421B381E090E0AC0142
:1002E00002C0440F551F6A95E2F7BA01622B61BB49
:1002F000089521B381E090E0AC0102C0440F551F86
:100300006A95E2F7BA016095622361BB089584346F
:1003100009F471C0853448F4823499F1833408F0CB
:100320004DC0813409F083C00FC0823651F183364D
:1003300020F4813609F07BC007C0833609F43EC043
:10034000843609F074C057C0413069F42BB381E0A2
:1003500090E0AC0102C0440F551F6A95E2F7BA0164
:10036000622B6BBB08952BB381E090E0AC0102C01F
:10037000440F551F6A95E2F7BA01609562236BBB83
:100380000895413069F428B381E090E0AC0102C0E7
:10039000440F551F6A95E2F7BA01622B68BB0895B6
:1003A00028B381E090E0AC0102C0440F551F6A956C
:1003B000E2F7BA016095622368BB0895413069F4A1
:1003C00025B381E090E0AC0102C0440F551F6A954F
:1003D000E2F7BA01622B65BB089525B381E090E096
:1003E000AC0102C0440F551F6A95E2F7BA0160954F
:1003F000622365BB0895413069F422B381E090E047
:10040000AC0102C0440F551F6A95E2F7BA01622B96
:1004100062BB089522B381E090E0AC0102C0440FBA
:10042000551F6A95E2F7BA016095622362BB089591
:10043000843409F43DC0853440F48234F9F08334C7
:1004400050F5813409F040C00CC08236B9F08336D3
:1004500018F48136C9F505C08336E9F08436A1F574
:1004600027C02AB381E090E0AC0102C0440F551FC1
:100470006A95E2F7BA0162276ABB089527B381E063
:1004800090E0AC0102C0440F551F6A95E2F7BA0133
:10049000622767BB089524B381E090E0AC0102C0FD
:1004A000440F551F6A95E2F7BA01622764BB0895AD
:1004B00021B381E090E0AC0102C0440F551F6A9562
:1004C000E2F7BA01622761BB0895843409F451C090
:1004D000853440F4823439F18334C0F5813409F035
:1004E0005AC00EC08236F9F0833620F4813609F006
:1004F00052C006C0833651F1843609F04CC039C071
:1005000029B381E090E0062E02C0880F991F0A945B
:10051000E2F730E08223932302C0959587956A9590
:10052000E2F7982F38C026B381E090E0062E02C093
:10053000880F991F0A94E2F730E08223932302C0C8
:10054000959587956A95E2F7982F25C023B381E0AA
:1005500090E0062E02C0880F991F0A94E2F730E05F
:100560008223932302C0959587956A95E2F7982F89
:1005700012C020B381E090E0062E02C0880F991FC0
:100580000A94E2F730E08223932302C09595879581
:100590006A95E2F7982F892F08958434D9F085342D
:1005A00038F4823499F0833498F48134A1F40CC087
:1005B000823661F0833618F4813669F405C08336DB
:1005C00039F0843641F406C06ABB089567BB0895CC
:1005D00064BB089561BB0895823471F0833418F4CC
:1005E0008134A9F405C0833459F0843481F40CC0FB
:1005F0008BB380958BBB08958BB380958BBB08958F
:100600008BB380958BBB08958BB380958BBB08957E
:100610008434D9F0853438F4823499F0833498F4F2
:100620008134A1F40CC0823661F0833618F481362F
:1006300069F405C0833639F0843641F406C06BBBDB
:10064000089568BB089565BB089562BB0895CF9374
:10065000C82F64E041E00E94F6008C2F65E041E085
:100660000E94F6008C2F66E041E00E94F6008C2F7D
:1006700067E041E00E94F600CF9108950F931F9329
:10068000CF93C82F062F462F417064E00E94870148
:1006900010E0A80142705070559547958C2F65E089
:1006A0000E948701A8014470507055954795559553
:1006B00047958C2F66E00E94870108701070A80192
:1006C0005595479555954795559547958C2F67E0D6
:1006D0000E948701CF911F910F91089584E490E0CB
:1006E00060E070E041E050E00E9487018FE99FE008
:1006F0000197F1F700C0000084E490E060E070E052
:1007000040E050E00E9487018FE99FE00197F1F7F8
:1007100000C000000895CF93C82F682F62956F70B6
:1007200084E490E070E00E943E0384E490E061E0A5
:1007300070E040E050E00E9487010E946E0384E474
:1007400090E06C2F70E00E943E0384E490E061E052
:1007500070E040E050E00E9487010E946E038FEC41
:1007600097E00197F1F700C00000CF91089581E074
:100770000E948B038FE19EE40197F1F700C0000017
:100780000895982F9150923060F4662361F06131A2
:1007900060F4813019F4862F815808C0862F815467
:1007A00005C080E803C080E801C080E80E948B0398
:1007B00008958FEF91EEA4E081509040A040E1F7C2
:1007C00000C0000084E490E00E94270384E490E0ED
:1007D00060E070E041E050E00E94F60084E490E0C8
:1007E00061E070E041E050E00E94F60084E490E0B7
:1007F00062E070E041E050E00E94F60084E490E0A6
:1008000062E070E040E050E00E94870182E00E94D8
:100810008B03AFE1BEE41197F1F700C0000088E25E
:100820000E948B038FEC97E00197F1F700C0000066
:100830008CE00E948B03AFECB7E01197F1F700C09A
:10084000000081E00E948B038FE19EE40197F1F7A5
:1008500000C0000086E00E948B03AFECB7E0119768
:10086000F1F700C000000895CF93C82F682F62955C
:100870006F7084E490E070E00E943E0384E490E0B6
:1008800061E070E041E050E00E9487010E946E0349
:1008900084E490E06C2F70E00E943E0384E490E0DA
:1008A00061E070E041E050E00E9487010E946E0329
:1008B0008FEC97E00197F1F700C00000CF91089509
:1008C000CF93DF93EC018881882331F021960E9439
:1008D000340489918823D9F7DF91CF91089570D09E
:1008E00088F09F5790F0B92F9927B751A0F0D1F019
:1008F000660F771F881F991F1AF0BA95C9F712C0A3
:10090000B13081F077D0B1E0089574C0672F782FAF
:100910008827B85F39F0B93FCCF38695779567950E
:10092000B395D9F73EF490958095709561957F4F7A
:100930008F4F9F4F0895E89409C097FB3EF4909520
:100940008095709561957F4F8F4F9F4F9923A9F0A8
:10095000F92F96E9BB279395F69587957795679537
:10096000B795F111F8CFFAF4BB0F11F460FF1BC07B
:100970006F5F7F4F8F4F9F4F16C0882311F096E90E
:1009800011C0772321F09EE8872F762F05C06623BC
:1009900071F096E8862F70E060E02AF09A95660F75
:1009A000771F881FDAF7880F9695879597F908952E
:1009B00057FD9058440F551F59F05F3F71F0479510
:1009C000880F97FB991F61F09F3F79F087950895F5
:1009D000121613061406551FF2CF4695F1DF08C014
:1009E000161617061806991FF1CF86957105610531
:1009F00008940895E894BB2766277727CB0197F9D9
:100A000008950BD078C069D028F06ED018F09523E7
:100A100009F05AC05FC01124EECFCADFA0F3959F42
:100A2000D1F3950F50E0551F629FF001729FBB27D5
:100A3000F00DB11D639FAA27F00DB11DAA1F649F81
:100A40006627B00DA11D661F829F2227B00DA11D34
:100A5000621F739FB00DA11D621F839FA00D611DBA
:100A6000221F749F3327A00D611D231F849F600DDB
:100A7000211D822F762F6A2F11249F5750408AF014
:100A8000E1F088234AF0EE0FFF1FBB1F661F771FA0
:100A9000881F91505040A9F79E3F510570F014C037
:100AA000AACF5F3FECF3983EDCF386957795679588
:100AB000B795F795E7959F5FC1F7FE2B880F911DBE
:100AC0009695879597F9089597F99F6780E870E064
:100AD00060E008959FEF80EC089500240A941616B4
:100AE000170618060906089500240A94121613061C
:100AF000140605060895092E0394000C11F48823AA
:100B000052F0BB0F40F4BF2B11F460FF04C06F5FC5
:100B10007F4F8F4F9F4F0895AA1BBB1B51E107C00A
:100B2000AA1FBB1FA617B70710F0A61BB70B881F7D
:100B3000991F5A95A9F780959095BC01CD0108950C
:040B4000F894FFCF57
:060B440074656D703D00B8
:00000001FF
