S01B000054696D65204D61737465722070726F6A6563742E73726563D7
S11300000C942A000C9447000C9447000C9447006D
S11300100C9447000C94EA0A0C9447000C94470093
S11300200C9447000C9447000C9447000C94470030
S11300300C9447000C9447000C9447000C94470020
S11300400C9447000C9447000C9447000C94470010
S11300500C94470011241FBECFE5D8E0DEBFCDBF0E
S113006010E0A0E6B0E0EEE2F7E102C005900D92E8
S1130070AC3EB107D9F710E0ACEEB0E001C01D9280
S1130080A93FB107E1F70E941E080C94950B0C944C
S11300900000843409F471C0853448F4823499F141
S11300A0833408F04DC0813409F083C00FC0823618
S11300B051F1833620F4813609F07BC007C08336C2
S11300C009F43EC0843609F074C057C0413069F465
S11300D02AB381E090E0AC0102C0440F551F6A9539
S11300E0E2F7BA01622B6ABB08952AB381E090E07B
S11300F0AC0102C0440F551F6A95E2F7BA0160953E
S113010062236ABB0895413069F427B381E090E02B
S1130110AC0102C0440F551F6A95E2F7BA01622B85
S113012067BB089527B381E090E0AC0102C0440F9F
S1130130551F6A95E2F7BA016095622367BB08957B
S1130140413069F424B381E090E0AC0102C0440F73
S1130150551F6A95E2F7BA01622B64BB089524B374
S113016081E090E0AC0102C0440F551F6A95E2F7AC
S1130170BA016095622364BB0895413069F421B3E8
S113018081E090E0AC0102C0440F551F6A95E2F78C
S1130190BA01622B61BB089521B381E090E0AC0108
S11301A002C0440F551F6A95E2F7BA0160956223B5
S11301B061BB0895843409F471C0853448F48234F1
S11301C099F1833408F04DC0813409F083C00FC025
S11301D0823651F1833620F4813609F07BC007C0A2
S11301E0833609F43EC0843609F074C057C04130E8
S11301F069F42BB381E090E0AC0102C0440F551FB9
S11302006A95E2F7BA01622B6BBB08952BB381E0C8
S113021090E0AC0102C0440F551F6A95E2F7BA01A1
S1130220609562236BBB0895413069F428B381E083
S113023090E0AC0102C0440F551F6A95E2F7BA0181
S1130240622B68BB089528B381E090E0AC0102C042
S1130250440F551F6A95E2F7BA016095622368BBA3
S11302600895413069F425B381E090E0AC0102C007
S1130270440F551F6A95E2F7BA01622B65BB0895D6
S113028025B381E090E0AC0102C0440F551F6A958C
S1130290E2F7BA016095622365BB0895413069F4C1
S11302A022B381E090E0AC0102C0440F551F6A956F
S11302B0E2F7BA01622B62BB089522B381E090E0B9
S11302C0AC0102C0440F551F6A95E2F7BA0160956C
S11302D0622362BB0895843409F43DC0853440F43C
S11302E08234F9F0833450F5813409F040C00CC0F5
S11302F08236B9F0833618F48136C9F505C08336E1
S1130300E9F08436A1F527C02BB381E090E0AC017D
S113031002C0440F551F6A95E2F7BA0162276BBB0E
S1130320089528B381E090E0AC0102C0440F551F4A
S11303306A95E2F7BA01622768BB089525B381E0A4
S113034090E0AC0102C0440F551F6A95E2F7BA0170
S1130350622765BB089522B381E090E0AC0102C03E
S1130360440F551F6A95E2F7BA01622762BB0895EC
S1130370843409F451C0853440F4823439F183342F
S1130380C0F5813409F05AC00EC08236F9F08336C4
S113039020F4813609F052C006C0833651F1843608
S11303A009F04CC039C029B381E090E0062E02C0A8
S11303B0880F991F0A94E2F730E08223932302C046
S11303C0959587956A95E2F7982F38C026B381E012
S11303D090E0062E02C0880F991F0A94E2F730E0DD
S11303E08223932302C0959587956A95E2F7982F07
S11303F025C023B381E090E0062E02C0880F991F28
S11304000A94E2F730E08223932302C095958795FE
S11304106A95E2F7982F12C020B381E090E0062E8F
S113042002C0880F991F0A94E2F730E082239323D5
S113043002C0959587956A95E2F7982F892F0895BC
S11304408434D9F0853438F4823499F0833498F4C0
S11304508134A1F40CC0823661F0833618F48136FD
S113046069F405C0833639F0843641F406C06ABBAA
S1130470089567BB089564BB089561BB08958234F1
S113048071F0833418F48134A9F405C0833459F02D
S1130490843481F40CC08BB380958BBB08958BB3EB
S11304A080958BBB08958BB380958BBB08958BB3DC
S11304B080958BBB08958434D9F0853438F4823424
S11304C099F0833498F48134A1F40CC0823661F03D
S11304D0833618F4813669F405C0833639F08436DE
S11304E041F406C06BBB089568BB089565BB0895CD
S11304F062BB0895CF93C82F64E041E00E94490095
S11305008C2F65E041E00E9449008C2F66E041E0B9
S11305100E9449008C2F67E041E00E944900CF917E
S113052008950F931F93CF93C82F062F462F417022
S113053064E00E94DA0010E0A80142705070559502
S113054047958C2F65E00E94DA00A8014470507032
S113055055954795559547958C2F66E00E94DA008E
S113056008701070A8015595479555954795559570
S113057047958C2F67E00E94DA00CF911F910F916D
S113058008950E94DA000895CF93C82F64E041E0F3
S11305900E9449008C2F65E041E00E9449008C2FA5
S11305A066E041E00E9449008C2F67E041E00E9430
S11305B04900CF9108950F931F93CF93C82F062F0F
S11305C0462F417064E00E94DA0010E0A8014270F6
S11305D05070559547958C2F65E00E94DA00A8016C
S11305E04470507055954795559547958C2F66E006
S11305F00E94DA0008701070A8015595479555952A
S11306004795559547958C2F67E00E94DA00CF9166
S11306101F910F91089584E460E041E00E94490035
S113062084E461E041E00E94490084E462E041E046
S11306300E94490084E463E041E00E94490084E4AC
S113064064E040E00E94490084E465E040E00E94E8
S1130650490084E466E040E00E94490084E467E0E5
S113066040E00E94490084E464E041E00E94C10249
S113067084E465E041E00E94C10284E466E041E074
S11306800E94C10284E467E041E00E94C10208952F
S11306900F931F93CF93DF93CDB7DEB760970FB659
S11306A0F894DEBF0FBECDBFDE011196E0E6F0E0A8
S11306B080E101900D928150E1F700E084E460E074
S11306C041E00E94DA0084E461E041E00E94DA0043
S11306D084E462E041E00E94DA0084E463E041E003
S11306E00E94DA0084E4602F40E00E94DA0010E007
S11306F0612F6C5F84E40E94B801882361F4E02FC9
S1130700F0E0EE0FFF1FEE0FFF1FE10FF11DEC0FE6
S1130710FD1F818104C01F5F143051F70BC0609628
S11307200FB6F894DEBF0FBECDBFDF91CF911F91FE
S11307300F9108950F5F043009F68FEFF0CF81E435
S113074090E060E070E041E050E00E94DA008FE960
S11307509FE00197F1F700C0000081E490E060E0C1
S113076070E040E050E00E94DA008FE99FE00197DA
S1130770F1F700C000000895CF93C82F682F629549
S11307806F7081E490E070E00E94DB0281E490E00D
S113079061E070E040E050E00E94DA000E949F03B4
S11307A081E490E06C2F70E00E94DB0281E490E031
S11307B061E070E040E050E00E94DA000E949F0394
S11307C08FEC97E00197F1F700C00000CF910895F6
S11307D081E00E94BC038FE19EE40197F1F700C021
S11307E000000895982F9150923060F4662361F0D0
S11307F0613160F4813019F4862F815808C0862F46
S1130800815405C080E803C080E801C080E80E94EC
S1130810BC0308958FEF91EEA4E081509040A04076
S1130820E1F700C0000081E490E00E94C40281E48A
S113083090E060E070E041E050E00E94490081E413
S113084090E061E070E041E050E00E94490081E402
S113085090E062E070E041E050E00E94490081E4F1
S113086090E062E070E040E050E00E94DA0082E054
S11308700E94BC03AFE1BEE41197F1F700C0000091
S113088088E20E94BC038FEC97E00197F1F700C067
S113089000008CE00E94BC03AFECB7E01197F1F7C5
S11308A000C0000081E00E94BC038FE19EE4019738
S11308B0F1F700C0000086E00E94BC03AFECB7E093
S11308C01197F1F700C000000895CF93C82F682F47
S11308D062956F7081E490E070E00E94DB0281E435
S11308E090E061E070E041E050E00E94DA000E9494
S11308F09F0381E490E06C2F70E00E94DB0281E4AE
S113090090E061E070E041E050E00E94DA000E9473
S11309109F038FEC97E00197F1F700C00000CF919F
S11309200895CF93DF93EC018881882331F02196D9
S11309300E94650489918823D9F7DF91CF910895A6
S113094040E00E94490008950E94B80108956FEFA5
S11309500E9420020895CF93DF93CDB7DEB72A9784
S11309600FB6F894DEBF0FBECDBFDE011196E0E7EF
S1130970F0E09AE001900D929150E1F7FE01E60F4C
S1130980F11D618170E00E945B022A960FB6F89413
S1130990DEBF0FBECDBFDF91CF910895CF93C82F97
S11309A06C34F9F06D3418F4683479F505C06836A0
S11309B019F06C3651F515C08C2F64E041E00E94AB
S11309C049008C2F65E041E00E9449008C2F66E0CD
S11309D041E00E9449008C2F67E041E00E944900F9
S11309E014C08C2F60E041E00E9449008C2F61E02C
S11309F041E00E9449008C2F62E041E00E944900DE
S1130A008C2F63E041E00E944900CF9108950F9339
S1130A101F93CF93C82F062F4C34A9F14D3420F4E3
S1130A20483409F058C006C0483621F04C3609F065
S1130A3052C029C0402F41708C2F64E00E94DA001C
S1130A4010E0A80142705070559547958C2F65E0D1
S1130A500E94DA00A8014470507055954795559549
S1130A6047958C2F66E00E94DA0008701070A80188
S1130A705595479555954795559547958C2F67E01E
S1130A800E94DA0028C0402F41708C2F60E00E9441
S1130A90DA0010E0A80142705070559547958C2FEC
S1130AA061E00E94DA00A8014470507055954795A2
S1130AB0559547958C2F62E00E94DA0008701070FB
S1130AC0A8015595479555954795559547958C2F6C
S1130AD063E00E94DA00CF911F910F910895CF93A4
S1130AE0DF930E94E8038AE790E00E949104109249
S1130AF0F000C091F000D0E00E944803C251DF4FE3
S1130B008883E091F000F0E0E251FF4F80818F3F55
S1130B1081F38FE79AE1A6E081509040A040E1F78D
S1130B2000C00000E091F000F0E0E251FF4F80814E
S1130B300E9465048091F0008F5F8093F000823002
S1130B40C0F28FEF94E3ACE081509040A040E1F715
S1130B5000C000009091EF0090518091EE00880F4A
S1130B60282F220F220F820F890F8093F5000E94F5
S1130B70E80385E890E00E9491041092F000C0918F
S1130B80F000D0E00E944803C251DF4F8883E09117
S1130B90F000F0E0E251FF4F80818F3F81F38FE757
S1130BA09AE1A6E081509040A040E1F700C0000027
S1130BB0E091F000F0E0E251FF4F80810E94650473
S1130BC08091F0008F5F8093F0008230C0F28FEF4D
S1130BD094E3ACE081509040A040E1F700C00000F5
S1130BE09091EF0090518091EE00880F282F220FF2
S1130BF0220F820F890F8093F4000E94E80382E998
S1130C0090E00E9491041092F000C091F000D0E0B6
S1130C100E944803C251DF4F8883E091F000F0E066
S1130C20E251FF4F80818F3F81F38FE79AE1A6E085
S1130C3081509040A040E1F700C00000E091F00036
S1130C40F0E0E251FF4F80810E9465048091F00042
S1130C508F5F8093F0008230C0F28FEF94E3ACE0BA
S1130C6081509040A040E1F700C000009091EF0057
S1130C7090518091EE00880F282F220F220F820FAF
S1130C80890F8093ED000E94E8038FE990E00E94B1
S1130C90910482E061E00E94F2038EEA90E00E94F7
S1130CA09104DF91CF910895CF93DF930E94E803DD
S1130CB086EB90E00E9491041092F000C091F00045
S1130CC0D0E00E944803C251DF4F8883E091F000D6
S1130CD0F0E0E251FF4F80818F3F81F38FE79AE18B
S1130CE0A6E081509040A040E1F700C00000E091F0
S1130CF0F000F0E0E251FF4F80810E946504809192
S1130D00F0008F5F8093F0008230C0F28FEF94E3A5
S1130D10ACE081509040A040E1F700C00000909109
S1130D20EF0090518091EE00880F282F220F220FA0
S1130D30820F890F8093F1000E94E8038FEB90E00B
S1130D400E9491041092F000C091F000D0E00E9443
S1130D504803C251DF4F8883E091F000F0E0E25194
S1130D60FF4F80818F3F81F38FE79AE1A6E08150A6
S1130D709040A040E1F700C00000E091F000F0E0F6
S1130D80E251FF4F80810E9465048091F0008F5FE3
S1130D908093F0008230C0F28FEF94E3ACE0815096
S1130DA09040A040E1F700C000009091EF00905106
S1130DB08091EE00880F282F220F220F820F890FB7
S1130DC08093F3000E94E8038AEC90E00E9491046F
S1130DD01092F000C091F000D0E00E944803C2518C
S1130DE0DF4F8883E091F000F0E0E251FF4F808113
S1130DF08F3F81F38FE79AE1A6E081509040A040B5
S1130E00E1F700C00000E091F000F0E0E251FF4F94
S1130E1080810E9465048091F0008F5F8093F000D0
S1130E208230C0F28FEF94E3ACE081509040A04058
S1130E30E1F700C000009091EF0090518091EE0026
S1130E40880F282F220F220F820F890F8093F20020
S1130E500E94E8038FE990E00E94910482E061E03F
S1130E600E94F2038EEA90E00E949104DF91CF91F8
S1130E700895CF93DF930E94E8038AE790E00E94ED
S1130E8091041092F000C091F000D0E00E94480359
S1130E90C251DF4F8883E091F000F0E0E251FF4F50
S1130EA080818F3F81F38FE79AE1A6E081509040E3
S1130EB0A040E1F700C00000E091F000F0E0E25152
S1130EC0FF4F80810E9465048091F0008F5F8093C2
S1130ED0F0008230C0F28FEF94E3ACE08150904098
S1130EE0A040E1F700C000009091EF009051809184
S1130EF0EE00880F282F220F220F820F890F809374
S1130F00F8000E94E80385E890E00E9491041092A2
S1130F10F000C091F000D0E00E944803C251DF4FBE
S1130F208883E091F000F0E0E251FF4F80818F3F31
S1130F3081F38FE79AE1A6E081509040A040E1F769
S1130F4000C00000E091F000F0E0E251FF4F80812A
S1130F500E9465048091F0008F5F8093F0008230DE
S1130F60C0F28FEF94E3ACE081509040A040E1F7F1
S1130F7000C000009091EF0090518091EE00880F26
S1130F80282F220F220F820F890F8093F7000E94CF
S1130F90E80382E990E00E9491041092F000C0916D
S1130FA0F000D0E00E944803C251DF4F8883E091F3
S1130FB0F000F0E0E251FF4F80818F3F81F38FE733
S1130FC09AE1A6E081509040A040E1F700C0000003
S1130FD0E091F000F0E0E251FF4F80810E9465044F
S1130FE08091F0008F5F8093F0008230C0F28FEF29
S1130FF094E3ACE081509040A040E1F700C00000D1
S11310009091EF0090518091EE00880F282F220FCD
S1131010220F820F890F8093F6000E94E8038FE964
S113102090E00E94910482E061E00E94F2038EEA63
S113103090E00E949104DF91CF9108950E940A04E8
S11310400E940B030E94640B82E46CE40E94CE04B1
S113105083E490E060E070E041E050E00E944900E9
S113106083E490E061E070E041E050E00E944900D8
S113107083E490E062E070E041E050E00E944900C7
S113108083E490E063E070E041E050E00E944900B6
S113109083E490E064E070E041E050E00E944900A5
S11310A083E490E065E070E041E050E00E94490094
S11310B082E490E064E070E040E050E00E94490087
S11310C082E490E065E070E041E050E00E94490075
S11310D084ED90E00E94910482E061E00E94F203BA
S11310E083EE90E00E949104D1E0CAE00E9448039C
S11310F08F3FC9F02FE73AE146E0215030404040AD
S1131100E1F700C00000823339F0833341F08133CA
S113111051F40E946F0507C00E94540604C00E9447
S11311203907D093EC008091ED009091F600891777
S1131130C9F52091F4009091F700291799F5909141
S1131140ED00891779F58091EC00813059F5109202
S1131150F00082E490E065E070E041E050E00E943D
S1131160DA008FEF94E3ACE081509040A040E1F7C7
S113117000C0000082E490E065E070E040E050E0F0
S11311800E94DA002FEF34E34CE02150304040401D
S1131190E1F700C000008091F0008F5F8093F000C1
S11311A08430B8F282E464E00E94A404813009F03F
S11311B0F0C083E490E060E070E040E050E00E9422
S11311C0DA0083E490E061E070E040E050E00E94E7
S11311D0DA0083E490E062E070E040E050E00E94D6
S11311E0DA0083E490E063E070E040E050E00E94C5
S11311F0DA0083E490E064E070E040E050E00E94B4
S1131200DA0083E490E065E070E040E050E00E94A2
S1131210DA0083E490E060E070E041E050E00E9496
S1131220DA008091F1006C2F0E94890B82E4692F0F
S11312304CE40E9407058FE097E20197F1F700C0A4
S1131240000083E490E060E070E040E050E00E9441
S1131250DA0083E490E061E070E041E050E00E9455
S1131260DA008091F1006C2F0E94890B682F82E4D0
S11312704CE40E940705AFE0B7E21197F1F700C014
S1131280000083E490E061E070E040E050E00E9400
S1131290DA0083E490E062E070E041E050E00E9414
S11312A0DA008091F3006C2F0E94890B82E4692F8D
S11312B04CE40E9407058FE097E20197F1F700C024
S11312C0000083E490E062E070E040E050E00E94BF
S11312D0DA0083E490E063E070E041E050E00E94D3
S11312E0DA008091F3006C2F0E94890B682F82E44E
S11312F04CE40E940705AFE0B7E21197F1F700C094
S1131300000083E490E063E070E040E050E00E947D
S1131310DA0083E490E064E070E041E050E00E9491
S1131320DA008091F2006C2F0E94890B82E4692F0D
S11313304CE40E9407058FE097E20197F1F700C0A3
S1131340000083E490E064E070E040E050E00E943C
S1131350DA0083E490E065E070E041E050E00E9450
S1131360DA008091F2006C2F0E94890B682F82E4CE
S11313704CE40E940705AFE0B7E21197F1F700C013
S1131380000082E464E00E94A404813009F411CFD7
S1131390E8C083E490E060E070E040E050E00E9448
S11313A0DA0083E490E061E070E040E050E00E9405
S11313B0DA0083E490E062E070E040E050E00E94F4
S11313C0DA0083E490E063E070E040E050E00E94E3
S11313D0DA0083E490E064E070E040E050E00E94D2
S11313E0DA0083E490E065E070E040E050E00E94C1
S11313F0DA0083E490E060E070E041E050E00E94B5
S1131400DA008091ED006C2F0E94890B82E4692F31
S11314104CE40E9407058FE097E20197F1F700C0C2
S1131420000083E490E060E070E040E050E00E945F
S1131430DA0083E490E061E070E041E050E00E9473
S1131440DA008091ED006C2F0E94890B682F82E4F2
S11314504CE40E940705AFE0B7E21197F1F700C032
S1131460000083E490E061E070E040E050E00E941E
S1131470DA0083E490E062E070E041E050E00E9432
S1131480DA008091F4006C2F0E94890B82E4692FAA
S11314904CE40E9407058FE097E20197F1F700C042
S11314A0000083E490E062E070E040E050E00E94DD
S11314B0DA0083E490E063E070E041E050E00E94F1
S11314C0DA008091F4006C2F0E94890B682F82E46B
S11314D04CE40E940705AFE0B7E21197F1F700C0B2
S11314E0000083E490E063E070E040E050E00E949C
S11314F0DA0083E490E064E070E041E050E00E94B0
S1131500DA008091F5006C2F0E94890B82E4692F28
S11315104CE40E9407058FE097E20197F1F700C0C1
S1131520000083E490E064E070E040E050E00E945A
S1131530DA0083E490E065E070E041E050E00E946E
S1131540DA008091F5006C2F0E94890B682F82E4E9
S11315504CE40E940705AFE0B7E21197F1F700C031
S113156000008091ED008C3338F01092ED008091F2
S1131570F4008F5F8093F4008091F4008C3338F092
S11315801092F4008091F5008F5F8093F5008091B4
S1131590F500893138F01092F5008091F1008F5FE9
S11315A08093F1008091F1008F3138F01092F100B6
S11315B08091F3008F5F8093F3008091F3008D306E
S11315C008F494CD1092F3008091F2008F5F809321
S11315D0F2008CCD1F920F920FB60F9211248F93AD
S11315E08091ED008F5F8093ED008F910F900FBE7F
S11315F00F901F90189583B78F7B83BF83B7877F26
S113160083BF83B7816083BF83B78D7F83BF7894A3
S113161089B7816089BF089583B7886083BF83B722
S1131620816083BF83B7846083BF83B78D7F83BFAB
S11316308FE48CBF789489B7826089BF089583B79B
S1131640886083BFBB9A80E48CBF83B7816083BF0B
S113165083B78D7F83BF83B7846083BF83B7806183
S113166083BF089583B7806483BF83B7886083BFD3
S1131670BB9A80E48CBF83B7816083BF83B78D7FBF
S113168083BF83B7846083BF83B7806183BF83B71D
S1131690806283BF089583B7806483BF83B7877FE5
S11316A083BFBB9A80E48CBF83B7816083BF83B759
S11316B08D7F83BF83B7846083BF83B78F7E83BFEF
S11316C083B7806283BF089582B5886082BD85B583
S11316D0816085BD85B5846085BD789489B7806453
S11316E089BF08951FBC82E08EBD789489B7846059
S11316F089BF08958EB588608EBD85E39CE09BBD4F
S11317008ABD8EB584608EBD789489B7806189BFA7
S11317100895991B79E004C0991F961708F0961B49
S1111720881F7A95C9F780950895F894FFCF35
S113172E3738392F3435362A3132332D41303D2B6B
S113173EC0F9A4B0999282B8809073657420486FF2
S113174E7572733A00736574204D696E75746573A2
S113175E3A00736574205365636F6E64733A003197
S113176E29776174636820322964617465003329B2
S113177E416C61726D00736574206461793A007313
S113178E6574206D6F6E74683A00736574207965A4
S113179E61723A0031297761746368203229646179
S10F17AE7465003329416C61726D000009
S9030000FC
