:100000000C942A000C9447000C9447000C94470071
:100010000C9447000C9451060C9447000C94470034
:100020000C9447000C9447000C9462060C94470013
:100030000C9447000C9447000C9447000C94470024
:100040000C9447000C9447000C9447000C94470014
:100050000C94470011241FBECFE5D8E0DEBFCDBF12
:1000600010E0A0E6B0E0EEE3FEE002C005900D92E5
:10007000AA37B107D9F710E0AAE7B0E001C01D9296
:10008000AF37B107E1F70E94B2040C941D070C943E
:100090000000843409F471C0853448F4823499F145
:1000A000833408F04DC0813409F083C00FC082361C
:1000B00051F1833620F4813609F07BC007C08336C6
:1000C00009F43EC0843609F074C057C0413069F469
:1000D0002AB381E090E0AC0102C0440F551F6A953D
:1000E000E2F7BA01622B6ABB08952AB381E090E07F
:1000F000AC0102C0440F551F6A95E2F7BA01609542
:1001000062236ABB0895413069F427B381E090E02F
:10011000AC0102C0440F551F6A95E2F7BA01622B89
:1001200067BB089527B381E090E0AC0102C0440FA3
:10013000551F6A95E2F7BA016095622367BB08957F
:10014000413069F424B381E090E0AC0102C0440F77
:10015000551F6A95E2F7BA01622B64BB089524B378
:1001600081E090E0AC0102C0440F551F6A95E2F7B0
:10017000BA016095622364BB0895413069F421B3EC
:1001800081E090E0AC0102C0440F551F6A95E2F790
:10019000BA01622B61BB089521B381E090E0AC010C
:1001A00002C0440F551F6A95E2F7BA0160956223B9
:1001B00061BB0895843409F471C0853448F48234F5
:1001C00099F1833408F04DC0813409F083C00FC029
:1001D000823651F1833620F4813609F07BC007C0A6
:1001E000833609F43EC0843609F074C057C04130EC
:1001F00069F42BB381E090E0AC0102C0440F551FBD
:100200006A95E2F7BA01622B6BBB08952BB381E0CC
:1002100090E0AC0102C0440F551F6A95E2F7BA01A5
:10022000609562236BBB0895413069F428B381E087
:1002300090E0AC0102C0440F551F6A95E2F7BA0185
:10024000622B68BB089528B381E090E0AC0102C046
:10025000440F551F6A95E2F7BA016095622368BBA7
:100260000895413069F425B381E090E0AC0102C00B
:10027000440F551F6A95E2F7BA01622B65BB0895DA
:1002800025B381E090E0AC0102C0440F551F6A9590
:10029000E2F7BA016095622365BB0895413069F4C5
:1002A00022B381E090E0AC0102C0440F551F6A9573
:1002B000E2F7BA01622B62BB089522B381E090E0BD
:1002C000AC0102C0440F551F6A95E2F7BA01609570
:1002D000622362BB0895843409F43DC0853440F440
:1002E0008234F9F0833450F5813409F040C00CC0F9
:1002F0008236B9F0833618F48136C9F505C08336E5
:10030000E9F08436A1F527C02BB381E090E0AC0181
:1003100002C0440F551F6A95E2F7BA0162276BBB12
:10032000089528B381E090E0AC0102C0440F551F4E
:100330006A95E2F7BA01622768BB089525B381E0A8
:1003400090E0AC0102C0440F551F6A95E2F7BA0174
:10035000622765BB089522B381E090E0AC0102C042
:10036000440F551F6A95E2F7BA01622762BB0895F0
:10037000843409F451C0853440F4823439F1833433
:10038000C0F5813409F05AC00EC08236F9F08336C8
:1003900020F4813609F052C006C0833651F184360C
:1003A00009F04CC039C029B381E090E0062E02C0AC
:1003B000880F991F0A94E2F730E08223932302C04A
:1003C000959587956A95E2F7982F38C026B381E016
:1003D00090E0062E02C0880F991F0A94E2F730E0E1
:1003E0008223932302C0959587956A95E2F7982F0B
:1003F00025C023B381E090E0062E02C0880F991F2C
:100400000A94E2F730E08223932302C09595879502
:100410006A95E2F7982F12C020B381E090E0062E93
:1004200002C0880F991F0A94E2F730E082239323D9
:1004300002C0959587956A95E2F7982F892F0895C0
:100440008434D9F0853438F4823499F0833498F4C4
:100450008134A1F40CC0823661F0833618F4813601
:1004600069F405C0833639F0843641F406C06ABBAE
:10047000089567BB089564BB089561BB08958234F5
:1004800071F0833418F48134A9F405C0833459F031
:10049000843481F40CC08BB380958BBB08958BB3EF
:1004A00080958BBB08958BB380958BBB08958BB3E0
:1004B00080958BBB08958434D9F0853438F4823428
:1004C00099F0833498F48134A1F40CC0823661F041
:1004D000833618F4813669F405C0833639F08436E2
:1004E00041F406C06BBB089568BB089565BB0895D1
:1004F00062BB0895CF93C82F64E041E00E94490099
:100500008C2F65E041E00E9449008C2F66E041E0BD
:100510000E9449008C2F67E041E00E944900CF9182
:1005200008950F931F93CF93C82F062F462F417026
:1005300064E00E94DA0010E0A80142705070559506
:1005400047958C2F65E00E94DA00A8014470507036
:1005500055954795559547958C2F66E00E94DA0092
:1005600008701070A8015595479555954795559574
:1005700047958C2F67E00E94DA00CF911F910F9171
:1005800008950E94DA000895CF93C82F64E041E0F7
:100590000E9449008C2F65E041E00E9449008C2FA9
:1005A00066E041E00E9449008C2F67E041E00E9434
:1005B0004900CF9108950F931F93CF93C82F062F13
:1005C000462F417064E00E94DA0010E0A8014270FA
:1005D0005070559547958C2F65E00E94DA00A80170
:1005E0004470507055954795559547958C2F66E00A
:1005F0000E94DA0008701070A8015595479555952E
:100600004795559547958C2F67E00E94DA00CF916A
:100610001F910F91089584E460E041E00E94490039
:1006200084E461E041E00E94490084E462E041E04A
:100630000E94490084E463E041E00E94490084E4B0
:1006400064E040E00E94490084E465E040E00E94EC
:10065000490084E466E040E00E94490084E467E0E9
:1006600040E00E94490084E464E041E00E94C1024D
:1006700084E465E041E00E94C10284E466E041E078
:100680000E94C10284E467E041E00E94C102089533
:100690000F931F93CF93DF93CDB7DEB760970FB65D
:1006A000F894DEBF0FBECDBFDE011196E0E6F0E0AC
:1006B00080E101900D928150E1F700E084E460E078
:1006C00041E00E94DA0084E461E041E00E94DA0047
:1006D00084E462E041E00E94DA0084E463E041E007
:1006E0000E94DA0084E4602F40E00E94DA0010E00B
:1006F000612F6C5F84E40E94B801882361F4E02FCD
:10070000F0E0EE0FFF1FEE0FFF1FE10FF11DEC0FEA
:10071000FD1F818104C01F5F143051F70BC060962C
:100720000FB6F894DEBF0FBECDBFDF91CF911F9102
:100730000F9108950F5F043009F68FEFF0CF81E439
:1007400090E060E070E041E050E00E94DA008FE964
:100750009FE00197F1F700C0000081E490E060E0C5
:1007600070E040E050E00E94DA008FE99FE00197DE
:10077000F1F700C000000895CF93C82F682F62954D
:100780006F7081E490E070E00E94DB0281E490E011
:1007900061E070E040E050E00E94DA000E949F03B8
:1007A00081E490E06C2F70E00E94DB0281E490E035
:1007B00061E070E040E050E00E94DA000E949F0398
:1007C0008FEC97E00197F1F700C00000CF910895FA
:1007D00081E00E94BC038FE19EE40197F1F700C025
:1007E00000000895982F9150923060F4662361F0D4
:1007F000613160F4813019F4862F815808C0862F4A
:10080000815405C080E803C080E801C080E80E94F0
:10081000BC0308958FEF91EEA4E081509040A0407A
:10082000E1F700C0000081E490E00E94C40281E48E
:1008300090E060E070E041E050E00E94490081E417
:1008400090E061E070E041E050E00E94490081E406
:1008500090E062E070E041E050E00E94490081E4F5
:1008600090E062E070E040E050E00E94DA0082E058
:100870000E94BC03AFE1BEE41197F1F700C0000095
:1008800088E20E94BC038FEC97E00197F1F700C06B
:1008900000008CE00E94BC03AFECB7E01197F1F7C9
:1008A00000C0000081E00E94BC038FE19EE401973C
:1008B000F1F700C0000086E00E94BC03AFECB7E097
:1008C0001197F1F700C000000895CF93C82F682F4B
:1008D00062956F7081E490E070E00E94DB0281E439
:1008E00090E061E070E041E050E00E94DA000E9498
:1008F0009F0381E490E06C2F70E00E94DB0281E4B2
:1009000090E061E070E041E050E00E94DA000E9477
:100910009F038FEC97E00197F1F700C00000CF91A3
:100920000895CF93DF93EC018881882331F02196DD
:100930000E94650489918823D9F7DF91CF910895AA
:1009400041E00E944900089541E00E94DA000895C4
:1009500040E00E94DA0008950E946B0108950E9411
:10096000B80108950E940A040E940B0382E40E94C9
:10097000730683E490E060E070E041E050E00E94A4
:10098000490083E490E061E070E041E050E00E94C3
:10099000490083E490E062E070E041E050E00E94B2
:1009A000490083E490E063E070E041E050E00E94A1
:1009B000490083E464E00E94A00483E465E00E94AF
:1009C000A0040E9403070E94AB0683E464E00E9437
:1009D000A40483E465E00E94A404CAE0D1E080910D
:1009E0007A008D3750F083E464E00E94AC0483E425
:1009F00065E00E94AC0410927A0080917C0088230C
:100A000009F09BC083E490E060E070E040E050E0DB
:100A10000E94DA0083E490E061E070E040E050E0A2
:100A20000E94DA0083E490E062E070E040E050E091
:100A30000E94DA0083E490E063E070E040E050E080
:100A40000E94DA008FE097E20197F1F700C0000002
:100A500083E490E060E070E041E050E00E94DA0062
:100A600080917B006C2F0E94110782E4692F0E9405
:100A700077068FE097E20197F1F700C0000083E46A
:100A800090E060E070E040E050E00E94DA0083E433
:100A900090E061E070E041E050E00E94DA00809177
:100AA0007B006C2F0E941107682F82E40E9477065A
:100AB0008FE097E20197F1F700C0000083E490E037
:100AC00061E070E040E050E00E94DA0083E490E0F2
:100AD00062E070E041E050E00E94DA0080917D0029
:100AE0006C2F0E94110782E4692F0E9477068FE025
:100AF00097E20197F1F700C0000083E490E062E024
:100B000070E040E050E00E94DA0083E490E063E0AF
:100B100070E041E050E00E94DA0080917D006C2F8F
:100B20000E941107682F82E40E9477068FE097E207
:100B30000197F1F700C000009AC083E490E060E004
:100B400070E040E050E00E94DA0083E490E061E071
:100B500070E040E050E00E94DA0083E490E062E060
:100B600070E040E050E00E94DA0083E490E063E04F
:100B700070E040E050E00E94DA008FE097E20197D9
:100B8000F1F700C0000083E490E060E070E041E035
:100B900050E00E94DA0080917D006C2F0E941107C6
:100BA00082E4692F0E9477068FE097E20197F1F7C0
:100BB00000C0000083E490E060E070E040E050E0BE
:100BC0000E94DA0083E490E061E070E041E050E0F0
:100BD0000E94DA0080917D006C2F0E941107682F1F
:100BE00082E40E9477068FE097E20197F1F700C058
:100BF000000083E490E061E070E040E050E00E949B
:100C0000DA0083E490E062E070E041E050E00E94AE
:100C1000DA0080917E006C2F0E94110782E4692F18
:100C20000E9477068FE097E20197F1F700C000007D
:100C300083E490E062E070E040E050E00E94DA007F
:100C400083E490E063E070E041E050E00E94DA006D
:100C500080917E006C2F0E941107682F82E40E9411
:100C600077068FE097E20197F1F700C000008091CE
:100C70007B008C3338F080917D008F5F80937D0006
:100C800010927B0080917D008C3308F4A8CED09325
:100C90007C0010927D0080917E008F5F80937E00AB
:100CA0009ECE1F920F920FB60F9211248F938091B8
:100CB0007B008F5F80937B008F910F900FBE0F9012
:100CC0001F9018951F920F920FB60F9211248F93B9
:100CD00080917A008F5F80937A008F910F900FBE82
:100CE0000F901F9018956FEF0E9420020895CF93E8
:100CF000DF93CDB7DEB72A970FB6F894DEBF0FBEED
:100D0000CDBFDE011196E0E7F0E09AE001900D9290
:100D10009150E1F7FE01E60FF11D618170E00E9444
:100D20005B022A960FB6F894DEBF0FBECDBFDF91EF
:100D3000CF91089583B78F7B83BF83B7877F83BFAE
:100D400083B7816083BF83B78D7F83BF789489B772
:100D5000816089BF089583B7886083BF83B78E7F22
:100D600083BF83B78D7F83BF83B7846083BF8DE7E5
:100D70008CBF789489B7826089BF089583B78860F3
:100D800083BFBB9A80E48CBF83B7816083BF83B786
:100D90008D7F83BF83B7846083BF83B7806183BF48
:100DA000089583B7806483BF83B7886083BFBB9A8D
:100DB00080E48CBF83B7816083BF83B78D7F83BF9F
:100DC00083B7846083BF83B7806183BF83B780624A
:100DD00083BF089583B7806483BF83B7877F83BF52
:100DE000BB9A80E48CBF83B7816083BF83B78D7F5C
:100DF00083BF83B7846083BF83B78F7E83BF83B78E
:100E0000806283BF089582B5886082BD85B58160A8
:100E100085BD85B5846085BD789489B7806489BFB8
:100E20000895991B79E004C0991F961708F0961B46
:0E0E3000881F7A95C9F780950895F894FFCF32
:100E3E003738392F3435362A3132332D41303D2B68
:0A0E4E00C0F9A4B0999282B8809018
:00000001FF
