S019000063617061636974616E6365206D657465722E7372656362
S11300000C942A000C9447000C9447000C9447006D
S11300100C9447000C9447000C9447000C94470040
S11300200C9447000C9447000C94BA010C944700BC
S11300300C9447000C9447000C9447000C94470020
S11300400C9447000C9447000C9447000C94470010
S11300500C94470011241FBECFE5D8E0DEBFCDBF0E
S113006010E0A0E6B0E0E0E1FFE002C005900D92F0
S1130070A838B107D9F710E0A8E8B0E001C01D9294
S1130080A839B107E1F70E945D000C9486070C942F
S113009000003E9A379A389839983A98319A329AA9
S11300A00895369A3699FECF349A84B190E045B1DA
S11300B0342F20E0822B932B08950E94C2040E94C7
S11300C049000E94690581E064E00E94AA0480E678
S11300D090E00E94490582E067E00E94AA048CE651
S11300E090E00E9449058FEF99E6A8E18150904085
S11300F0A040E1F700C000000E94A0040AE710E05D
S11301000F2EF2E7AF2EF0E0BF2EF02D0F2EF7E703
S11301108F2EF0E09F2EF02D0F2EF4E66F2E772415
S1130120F02DCAE0D0E0D59AD49881E490E065E05F
S113013070E041E050E00E9470028091880090914C
S11301408900A0918A00B0918B0080938C009093D9
S11301508D00A0938E00B0938F000E945100A2E006
S113016088389A07D0F38091880090918900A091F3
S11301708A00B0918B0040918C0050918D00609169
S11301808E0070918F006C017D01C41AD50AE60AB5
S1130190F70AC701B601C0929000D0929100E09294
S11301A09200F09293000E94590620E030E44CE162
S11301B056E40E94C50520E030E04AE754E40E947A
S11301C00F07262F372FF82FE92F462F572F682F89
S11301D0792F409394005093950060939600709308
S11301E09700822F932FAF2FBE2FBC01CD0120E0AB
S11301F030E040E85FE30E940B0788230CF495C0CD
S11302000E94A004C5010E944905C0909400D090AA
S11302109500E0909600F0909700C701B60120E0A9
S113022030E040E251E40E94C10588234CF4C70148
S1130230B6010E942D06862F805D0E941D0568C0B0
S1130240C701B60120E030E046EC52E40E94C1054B
S1130250882304F5C701B6010E942D06DC01CB01F9
S1130260BE010E947207862F805D0E941D05609169
S113027094007091950080919600909197000E944F
S11302802D06DC01CB01BE010E947207805D0E9435
S11302901D053EC0C701B6010E942D06DC01CB013D
S11302A0B3010E947207862F805D0E941D05609134
S11302B094007091950080919600909197000E940F
S11302C02D06DC01CB019C01BE010E947207462F62
S11302D0405DC901B3010E947207660F862F880F23
S11302E0880F680F842F861B0E941D05609194005F
S11302F07091950080919600909197000E942D0630
S1130300DC01CB01BE010E947207805D0E941D05C5
S1130310C4010E9449058FEF93EDA0E38150904002
S1130320A040E1F700C000000EC00E94A004C80174
S11303300E9449058FEF93EDA0E381509040A040C7
S1130340E1F700C0000081E490E065E070E040E087
S113035050E00E947002D598D49A81E490E064E061
S113036070E040E050E00E9470020E94510000974B
S1130370E1F7D9CE1F920F920FB60F9211248F93EB
S11303809F93AF93BF938091880090918900A0912F
S11303908A00B0918B000196A11DB11D8093880045
S11303A090938900A0938A00B0938B00BF91AF9182
S11303B09F918F910F900FBE0F901F9018958434CA
S11303C009F471C0853448F4823499F1833408F017
S11303D04DC0813409F083C00FC0823651F1833699
S11303E020F4813609F07BC007C0833609F43EC08F
S11303F0843609F074C057C0413069F42AB381E0EF
S113040090E0AC0102C0440F551F6A95E2F7BA01AF
S1130410622B6ABB08952AB381E090E0AC0102C06C
S1130420440F551F6A95E2F7BA01609562236ABBCF
S11304300895413069F427B381E090E0AC0102C033
S1130440440F551F6A95E2F7BA01622B67BB089502
S113045027B381E090E0AC0102C0440F551F6A95B8
S1130460E2F7BA016095622367BB0895413069F4ED
S113047024B381E090E0AC0102C0440F551F6A959B
S1130480E2F7BA01622B64BB089524B381E090E0E3
S1130490AC0102C0440F551F6A95E2F7BA0160959A
S11304A0622364BB0895413069F421B381E090E094
S11304B0AC0102C0440F551F6A95E2F7BA01622BE2
S11304C061BB089521B381E090E0AC0102C0440F08
S11304D0551F6A95E2F7BA016095622361BB0895DE
S11304E0843409F471C0853448F4823499F1833436
S11304F008F04DC0813409F083C00FC0823651F139
S1130500833620F4813609F07BC007C0833609F4B2
S11305103EC0843609F074C057C0413069F42BB32F
S113052081E090E0AC0102C0440F551F6A95E2F7E8
S1130530BA01622B6BBB08952BB381E090E0AC0150
S113054002C0440F551F6A95E2F7BA016095622311
S11305506BBB0895413069F428B381E090E0AC01AD
S113056002C0440F551F6A95E2F7BA01622B68BBBB
S1130570089528B381E090E0AC0102C0440F551FF8
S11305806A95E2F7BA016095622368BB0895413029
S113059069F425B381E090E0AC0102C0440F551F1B
S11305A06A95E2F7BA01622B65BB089525B381E031
S11305B090E0AC0102C0440F551F6A95E2F7BA01FE
S11305C06095622365BB0895413069F422B381E0EC
S11305D090E0AC0102C0440F551F6A95E2F7BA01DE
S11305E0622B62BB089522B381E090E0AC0102C0AB
S11305F0440F551F6A95E2F7BA016095622362BB06
S11306000895843409F43DC0853440F48234F9F00B
S1130610833450F5813409F040C00CC08236B9F0FF
S1130620833618F48136C9F505C08336E9F084367B
S1130630A1F527C02BB381E090E0AC0102C0440FC8
S1130640551F6A95E2F7BA0162276BBB089528B378
S113065081E090E0AC0102C0440F551F6A95E2F7B7
S1130660BA01622768BB089525B381E090E0AC012C
S113067002C0440F551F6A95E2F7BA01622765BBB1
S1130680089525B381E090E0AC0102C0440F551FEA
S11306906A95E2F7BA01622765BB0895843409F4C8
S11306A051C0853440F4823439F18334C0F5813447
S11306B009F05AC00EC08236F9F0833620F4813630
S11306C009F052C006C0833651F1843609F04CC09B
S11306D039C029B381E090E0062E02C0880F991F2B
S11306E00A94E2F730E08223932302C0959587951C
S11306F06A95E2F7982F38C026B381E090E0062E81
S113070002C0880F991F0A94E2F730E082239323F2
S113071002C0959587956A95E2F7982F25C023B373
S113072081E090E0062E02C0880F991F0A94E2F738
S113073030E08223932302C0959587956A95E2F76A
S1130740982F12C020B381E090E0062E02C0880FDB
S1130750991F0A94E2F730E08223932302C095950F
S113076087956A95E2F7982F892F08958434D9F0F4
S1130770853438F4823499F0833498F48134A1F4C4
S11307800CC0823661F0833618F4813669F405C0F2
S1130790833639F0843641F406C06ABB089567BBDA
S11307A0089564BB089561BB0895823471F0833465
S11307B018F48134A9F405C0833459F0843481F4E5
S11307C00CC08BB380958BBB08958BB380958BBB8A
S11307D008958BB380958BBB08958BB380958BBBA9
S11307E008958434D9F0853438F4823499F083340C
S11307F098F48134A1F40CC0823661F0833618F485
S1130800813669F405C0833639F0843641F406C074
S11308106BBB089568BB089565BB089562BB0895DA
S1130820CF93C82F64E041E00E94DF018C2F65E084
S113083041E00E94DF018C2F66E041E00E94DF016D
S11308408C2F67E041E00E94DF01CF9108950F9360
S11308501F93CF93C82F062F462F417064E00E9448
S1130860700210E0A80142705070559547958C2F86
S113087065E00E947002A801447050705595479538
S1130880559547958C2F66E00E9470020870107091
S1130890A8015595479555954795559547958C2F9E
S11308A067E00E947002CF911F910F91089584E434
S11308B090E060E070E041E050E00E9470028FE957
S11308C09FE00197F1F700C0000084E490E060E04D
S11308D070E040E050E00E9470028FE99FE00197D1
S11308E0F1F700C000000895CF93C82F682F6295D8
S11308F06F7084E490E070E00E94270484E490E048
S113090061E070E040E050E00E9470020E945704F1
S113091084E490E06C2F70E00E94270484E490E06B
S113092061E070E040E050E00E9470020E945704D1
S11309308FEC97E00197F1F700C00000CF91089584
S113094081E00E9474048FE19EE40197F1F700C0F6
S113095000000895982F9150923060F4662361F05E
S1130960613160F4813019F4862F815808C0862FD4
S1130970815405C080E803C080E801C080E80E947B
S1130980740408958FEF91EEA4E081509040A0404C
S1130990E1F700C0000084E490E00E94100484E4C5
S11309A090E060E070E041E050E00E94DF0184E408
S11309B090E061E070E041E050E00E94DF0184E4F7
S11309C090E062E070E041E050E00E94DF0184E4E6
S11309D090E062E070E040E050E00E94700282E04B
S11309E00E947404AFE1BEE41197F1F700C0000067
S11309F088E20E9474048FEC97E00197F1F700C03D
S1130A0000008CE00E947404AFECB7E01197F1F79A
S1130A1000C0000081E00E9474048FE19EE401970D
S1130A20F1F700C0000086E00E947404AFECB7E068
S1130A301197F1F700C000000895CF93C82F682FD5
S1130A4062956F7084E490E070E00E94270484E46F
S1130A5090E061E070E041E050E00E9470020E948A
S1130A60570484E490E06C2F70E00E94270484E42F
S1130A7090E061E070E041E050E00E9470020E946A
S1130A8057048FEC97E00197F1F700C00000CF9175
S1130A900895CF93DF93EC018881882331F0219668
S1130AA00E941D0589918823D9F7DF91CF9108957C
S1130AB083B78F7B83BF83B7877F83BF83B781600F
S1130AC083BF83B78D7F83BF789489B7816089BFE3
S1130AD0089583B7886083BF83B7846083BF83B777
S1130AE08E7F83BF83B78D7F83BF8EE18CBF789465
S1130AF089B7826089BF089583B7886083BFBB9A32
S1130B0080E48CBF83B7816083BF83B78D7F83BF4D
S1130B1083B7846083BF83B7806183BF089583B73D
S1130B20806483BF83B7886083BFBB9A80E48CBF33
S1130B3083B7816083BF83B78D7F83BF83B78460AE
S1130B4083BF83B7806183BF83B7806283BF089507
S1130B5083B7806483BF83B7877F83BFBB9A80E4F6
S1130B608CBF83B7816083BF83B78D7F83BF83B717
S1130B70846083BF83B78F7E83BF83B7806283BF64
S1130B800895D4D008F481E008950CD00AC102D1AC
S1130B9040F0F9D030F021F45F3F19F0EBC051116F
S1130BA034C1EEC00FD198F39923C9F35523B1F39F
S1130BB0951B550BBB27AA2762177307840738F0C8
S1130BC09F5F5F4F220F331F441FAA1FA9F333D027
S1130BD00E2E3AF0E0E830D091505040E695001CDB
S1130BE0CAF729D0FE2F27D0660F771F881FBB1F97
S1130BF0261737074807AB07B0E809F0BB0B802D71
S1130C00BF01FF2793585F4F2AF09E3F510568F0BC
S1130C10B1C0FBC05F3FECF3983EDCF3869577955B
S1130C206795B795F7959F5FC9F7880F911D9695BE
S1130C30879597F90895E1E0660F771F881FBB1F1A
S1130C40621773078407BA0720F0621B730B840BC7
S1130C50BA0BEE1F88F7E0950895BCD088F09F5733
S1130C6090F0B92F9927B751A0F0D1F0660F771FF4
S1130C70881F991F1AF0BA95C9F712C0B13081F0D4
S1130C80C3D0B1E00895C0C0672F782F8827B85F1C
S1130C9039F0B93FCCF3869577956795B395D9F735
S1130CA03EF490958095709561957F4F8F4F9F4F3F
S1130CB00895E89409C097FB3EF49095809570954B
S1130CC061957F4F8F4F9F4F9923A9F0F92F96E994
S1130CD0BB279395F695879577956795B795F11109
S1130CE0F8CFFAF4BB0F11F460FF1BC06F5F7F4FA6
S1130CF08F4F9F4F16C0882311F096E911C07723B8
S1130D0021F09EE8872F762F05C0662371F096E8C0
S1130D10862F70E060E02AF09A95660F771F881F8F
S1130D20DAF7880F9695879597F90895990F000833
S1130D30550FAA0BE0E8FEEF16161706E807F907A9
S1130D40C0F012161306E407F50798F0621B730B44
S1130D50840B950B39F40A2661F0232B242B252BC5
S1130D6021F408950A2609F4A140A6958FEF811D68
S1130D70811D089597F99F6780E870E060E0089509
S1130D809FEF80EC089500240A941616170618069F
S1130D900906089500240A9412161306140605067B
S1130DA00895092E0394000C11F4882352F0BB0F0C
S1130DB040F4BF2B11F460FF04C06F5F7F4F8F4F6F
S1130DC09F4F089557FD9058440F551F59F05F3FAA
S1130DD071F04795880F97FB991F61F09F3F79F059
S1130DE087950895121613061406551FF2CF4695DB
S1130DF0F1DF08C0161617061806991FF1CF86955D
S1130E007105610508940895E894BB276627772740
S1130E10CB0197F908958ADF08F48FEF08950BD07A
S1130E20C0CFB1DF28F0B6DF18F0952309F0A2CFC8
S1130E30A7CF1124EACFC6DFA0F3959FD1F3950F76
S1130E4050E0551F629FF001729FBB27F00DB11D4A
S1130E50639FAA27F00DB11DAA1F649F6627B00DDA
S1130E60A11D661F829F2227B00DA11D621F739FC3
S1130E70B00DA11D621F839FA00D611D221F749FD1
S1130E803327A00D611D231F849F600D211D822F18
S1130E90762F6A2F11249F5750408AF0E1F088235F
S1130EA04AF0EE0FFF1FBB1F661F771F881F91506C
S1130EB05040A9F79E3F510570F05CCFA6CF5F3F2D
S1130EC0ECF3983EDCF3869577956795B795F7959F
S1130ED0E7959F5FC1F7FE2B880F911D9695879527
S1130EE097F90895AA1BBB1B51E107C0AA1FBB1F9A
S1130EF0A617B70710F0A61BB70B881F991F5A95A2
S1130F00A9F780959095BC01CD010895F894FFCF81
S1130F1063617061636974616E6365006D657465B6
S1130F2072006361703D007546004F7574206F66F2
S10B0F302072616E6765000088
S9030000FC
