S01F0000656C65637472696320766F74696E67206D616368696E652E737265630E
S11300000C942A000C9447000C9447000C9447006D
S11300100C9447000C9447000C9447000C94470040
S11300200C9447000C9447000C9447000C94470030
S11300300C9447000C9447000C9447000C94470020
S11300400C9447000C9447000C9447000C94470010
S11300500C94470011241FBECFE5D8E0DEBFCDBF0E
S113006010E0A0E6B0E0E0EFF8E002C005900D92E9
S1130070A037B107D9F710E0A0E7B0E001C01D92A6
S1130080A037B107E1F70E94C1020C9476040C94E6
S11300900000843409F471C0853448F4823499F141
S11300A0833408F04DC0813409F083C00FC0823618
S11300B051F1833620F4813609F07BC007C08336C2
S11300C009F43EC0843609F074C057C0413069F465
S11300D02AB381E090E0AC0102C0440F551F6A9539
S11300E0E2F7BA01622B6ABB08952AB381E090E07B
S11300F0AC0102C0440F551F6A95E2F7BA0160953E
S113010062236ABB0895413069F427B381E090E02B
S1130110AC0102C0440F551F6A95E2F7BA01622B85
S113012067BB089527B381E090E0AC0102C0440F9F
S1130130551F6A95E2F7BA016095622367BB08957B
S1130140413069F424B381E090E0AC0102C0440F73
S1130150551F6A95E2F7BA01622B64BB089524B374
S113016081E090E0AC0102C0440F551F6A95E2F7AC
S1130170BA016095622364BB0895413069F421B3E8
S113018081E090E0AC0102C0440F551F6A95E2F78C
S1130190BA01622B61BB089521B381E090E0AC0108
S11301A002C0440F551F6A95E2F7BA0160956223B5
S11301B061BB0895843409F471C0853448F48234F1
S11301C099F1833408F04DC0813409F083C00FC025
S11301D0823651F1833620F4813609F07BC007C0A2
S11301E0833609F43EC0843609F074C057C04130E8
S11301F069F42BB381E090E0AC0102C0440F551FB9
S11302006A95E2F7BA01622B6BBB08952BB381E0C8
S113021090E0AC0102C0440F551F6A95E2F7BA01A1
S1130220609562236BBB0895413069F428B381E083
S113023090E0AC0102C0440F551F6A95E2F7BA0181
S1130240622B68BB089528B381E090E0AC0102C042
S1130250440F551F6A95E2F7BA016095622368BBA3
S11302600895413069F425B381E090E0AC0102C007
S1130270440F551F6A95E2F7BA01622B65BB0895D6
S113028025B381E090E0AC0102C0440F551F6A958C
S1130290E2F7BA016095622365BB0895413069F4C1
S11302A022B381E090E0AC0102C0440F551F6A956F
S11302B0E2F7BA01622B62BB089522B381E090E0B9
S11302C0AC0102C0440F551F6A95E2F7BA0160956C
S11302D0622362BB0895843409F43DC0853440F43C
S11302E08234F9F0833450F5813409F040C00CC0F5
S11302F08236B9F0833618F48136C9F505C08336E1
S1130300E9F08436A1F527C02AB381E090E0AC017E
S113031002C0440F551F6A95E2F7BA0162276ABB0F
S1130320089527B381E090E0AC0102C0440F551F4B
S11303306A95E2F7BA01622767BB089524B381E0A6
S113034090E0AC0102C0440F551F6A95E2F7BA0170
S1130350622764BB089521B381E090E0AC0102C040
S1130360440F551F6A95E2F7BA01622761BB0895ED
S1130370843409F451C0853440F4823439F183342F
S1130380C0F5813409F05AC00EC08236F9F08336C4
S113039020F4813609F052C006C0833651F1843608
S11303A009F04CC039C029B381E090E0062E02C0A8
S11303B0880F991F0A94E2F730E08223932302C046
S11303C0959587956A95E2F7982F38C026B381E012
S11303D090E0062E02C0880F991F0A94E2F730E0DD
S11303E08223932302C0959587956A95E2F7982F07
S11303F025C023B381E090E0062E02C0880F991F28
S11304000A94E2F730E08223932302C095958795FE
S11304106A95E2F7982F12C020B381E090E0062E8F
S113042002C0880F991F0A94E2F730E082239323D5
S113043002C0959587956A95E2F7982F892F0895BC
S11304408434D9F0853438F4823499F0833498F4C0
S11304508134A1F40CC0823661F0833618F48136FD
S113046069F405C0833639F0843641F406C06ABBAA
S1130470089567BB089564BB089561BB08958234F1
S113048071F0833418F48134A9F405C0833459F02D
S1130490843481F40CC08BB380958BBB08958BB3EB
S11304A080958BBB08958BB380958BBB08958BB3DC
S11304B080958BBB08958434D9F0853438F4823424
S11304C099F0833498F48134A1F40CC0823661F03D
S11304D0833618F4813669F405C0833639F08436DE
S11304E041F406C06BBB089568BB089565BB0895CD
S11304F062BB0895CF93C82F64E041E00E94490095
S11305008C2F65E041E00E9449008C2F66E041E0B9
S11305100E9449008C2F67E041E00E944900CF917E
S113052008950F931F93CF93C82F062F462F417022
S113053064E00E94DA0010E0A80142705070559502
S113054047958C2F65E00E94DA00A8014470507032
S113055055954795559547958C2F66E00E94DA008E
S113056008701070A8015595479555954795559570
S113057047958C2F67E00E94DA00CF911F910F916D
S113058008950E94E90382E464E00E94630482E423
S113059065E00E94630482E466E00E94630482E4EE
S11305A067E00E94630480E690E00E94540481E0C6
S11305B06CE00E94D10384E690E00E94540482E03F
S11305C061E00E94D10388E690E00E94540482E036
S11305D06CE00E94D1038CE690E00E945404EE2467
S11305E0FF2410E0D0E00AE082E464E00E946704A3
S11305F08130F9F4CD2FCF5FCA3048F463E00E9414
S1130600D1038D2F8F5C0E943D04DC2F82C081E0DA
S113061063E00E94D1038C2F602F0E946A04D92FBB
S1130620805D0E943D048D2F805D0E943D04DC2F7F
S113063070C082E465E00E9467048130F9F4C12F40
S1130640CF5FCA3048F46EE00E94D103812F8F5CE3
S11306500E943D041C2F5DC081E06EE00E94D10326
S11306608C2F602F0E946A04192F805D0E943D0424
S1130670812F805D0E943D041C2F4BC082E466E004
S11306800E946704813001F5CF2DCF5FCA3050F44A
S113069082E063E00E94D1038F2D8F5C0E943D04B1
S11306A0FC2E37C082E063E00E94D1038C2F602FC0
S11306B00E946A04F92E805D0E943D048F2D805DA6
S11306C00E943D04FC2E25C082E467E00E9467047A
S11306D08130F9F4CE2DCF5FCA3050F482E06EE061
S11306E00E94D1038E2D8F5C0E943D04EC2E11C01C
S11306F082E06EE00E94D1038C2F602F0E946A0476
S1130700E92E805D0E943D048E2D805D0E943D0493
S1130710EC2E8FEF91EEA4E081509040A040E1F7E1
S113072000C0000061CF82E490E060E070E041E04E
S113073050E00E94DA008FE99FE00197F1F700C0D2
S1130740000082E490E060E070E040E050E00E944D
S1130750DA008FE99FE00197F1F700C000000895E7
S1130760682F81E490E070E00E945B0282E490E0F4
S113077061E070E040E050E00E94DA000E949303E0
S11307808FEC97E00197F1F700C00000089581E035
S11307900E94B0038FE19EE40197F1F700C00000CE
S11307A00895982F9150923060F4662361F061317E
S11307B060F4813019F4862F815808C0862F815443
S11307C005C080E803C080E801C080E80E94B0034F
S11307D008958FEF91EEA4E081509040A040E1F79E
S11307E000C0000081E490E06FEF70E00E942002FE
S11307F082E490E060E070E041E050E00E94490053
S113080082E490E061E070E041E050E00E94490041
S113081082E490E062E070E041E050E00E94490030
S113082082E490E062E070E040E050E00E94DA0090
S113083088E30E94B003AFECB7E01197F1F700C072
S113084000008CE00E94B0038FEC97E00197F1F771
S113085000C0000081E00E94B003AFE1BEE4119744
S1130860F1F700C0000086E00E94B0038FEC97E02F
S11308700197F1F700C000000895682F81E490E02B
S113088070E00E945B0282E490E061E070E041E08D
S113089050E00E94DA000E9493038FEC97E00197E6
S11308A0F1F700C000000895CF93DF93EC01888135
S11308B0882331F021960E943D0489918823D9F739
S11308C0DF91CF91089540E00E94490008950E946D
S11308D0B8010895991B79E004C0991F961708F090
S11308E0961B881F7A95C9F780950895F894FFCFD1
S11308F0413D3000423D3000433D3000443D300036
S9030000FC
