S01500004761726167652073797374656D2E7372656303
S11300000C942A000C9447000C9447000C9447006D
S11300100C9447000C9447000C9447000C94470040
S11300200C9447000C9447000C9447000C94470030
S11300300C9447000C9447000C9447000C94470020
S11300400C9447000C9447000C9447000C94470010
S11300500C94470011241FBECFE5D8E0DEBFCDBF0E
S113006010E0A0E6B0E0EAE0FFE002C005900D92E7
S1130070A039B107D9F710E0A0E9B0E001C01D92A2
S1130080A039B107E1F70E940B030C9483070C9489
S11300900000843409F471C0853448F4823499F141
S11300A0833408F04DC0813409F083C00FC0823618
S11300B051F1833620F4813609F07BC007C08336C2
S11300C009F43EC0843609F074C057C0413069F465
S11300D02AB381E090E0AC0102C0440F551F6A9539
S11300E0E2F7BA01622B6ABB08952AB381E090E07B
S11300F0AC0102C0440F551F6A95E2F7BA0160953E
S113010062236ABB0895413069F427B381E090E02B
S1130110AC0102C0440F551F6A95E2F7BA01622B85
S113012067BB089527B381E090E0AC0102C0440F9F
S1130130551F6A95E2F7BA016095622367BB08957B
S1130140413069F424B381E090E0AC0102C0440F73
S1130150551F6A95E2F7BA01622B64BB089524B374
S113016081E090E0AC0102C0440F551F6A95E2F7AC
S1130170BA016095622364BB0895413069F421B3E8
S113018081E090E0AC0102C0440F551F6A95E2F78C
S1130190BA01622B61BB089521B381E090E0AC0108
S11301A002C0440F551F6A95E2F7BA0160956223B5
S11301B061BB0895843409F471C0853448F48234F1
S11301C099F1833408F04DC0813409F083C00FC025
S11301D0823651F1833620F4813609F07BC007C0A2
S11301E0833609F43EC0843609F074C057C04130E8
S11301F069F42BB381E090E0AC0102C0440F551FB9
S11302006A95E2F7BA01622B6BBB08952BB381E0C8
S113021090E0AC0102C0440F551F6A95E2F7BA01A1
S1130220609562236BBB0895413069F428B381E083
S113023090E0AC0102C0440F551F6A95E2F7BA0181
S1130240622B68BB089528B381E090E0AC0102C042
S1130250440F551F6A95E2F7BA016095622368BBA3
S11302600895413069F425B381E090E0AC0102C007
S1130270440F551F6A95E2F7BA01622B65BB0895D6
S113028025B381E090E0AC0102C0440F551F6A958C
S1130290E2F7BA016095622365BB0895413069F4C1
S11302A022B381E090E0AC0102C0440F551F6A956F
S11302B0E2F7BA01622B62BB089522B381E090E0B9
S11302C0AC0102C0440F551F6A95E2F7BA0160956C
S11302D0622362BB0895843409F43DC0853440F43C
S11302E08234F9F0833450F5813409F040C00CC0F5
S11302F08236B9F0833618F48136C9F505C08336E1
S1130300E9F08436A1F527C02BB381E090E0AC017D
S113031002C0440F551F6A95E2F7BA0162276BBB0E
S1130320089528B381E090E0AC0102C0440F551F4A
S11303306A95E2F7BA01622768BB089525B381E0A4
S113034090E0AC0102C0440F551F6A95E2F7BA0170
S1130350622765BB089522B381E090E0AC0102C03E
S1130360440F551F6A95E2F7BA01622762BB0895EC
S1130370843409F451C0853440F4823439F183342F
S1130380C0F5813409F05AC00EC08236F9F08336C4
S113039020F4813609F052C006C0833651F1843608
S11303A009F04CC039C029B381E090E0062E02C0A8
S11303B0880F991F0A94E2F730E08223932302C046
S11303C0959587956A95E2F7982F38C026B381E012
S11303D090E0062E02C0880F991F0A94E2F730E0DD
S11303E08223932302C0959587956A95E2F7982F07
S11303F025C023B381E090E0062E02C0880F991F28
S11304000A94E2F730E08223932302C095958795FE
S11304106A95E2F7982F12C020B381E090E0062E8F
S113042002C0880F991F0A94E2F730E082239323D5
S113043002C0959587956A95E2F7982F892F0895BC
S11304408434D9F0853438F4823499F0833498F4C0
S11304508134A1F40CC0823661F0833618F48136FD
S113046069F405C0833639F0843641F406C06ABBAA
S1130470089567BB089564BB089561BB08958234F1
S113048071F0833418F48134A9F405C0833459F02D
S1130490843481F40CC08BB380958BBB08958BB3EB
S11304A080958BBB08958BB380958BBB08958BB3DC
S11304B080958BBB08958434D9F0853438F4823424
S11304C099F0833498F48134A1F40CC0823661F03D
S11304D0833618F4813669F405C0833639F08436DE
S11304E041F406C06BBB089568BB089565BB0895CD
S11304F062BB0895CF93C82F64E041E00E94490095
S11305008C2F65E041E00E9449008C2F66E041E0B9
S11305100E9449008C2F67E041E00E944900CF917E
S113052008950F931F93CF93C82F062F462F417022
S113053064E00E94DA0010E0A80142705070559502
S113054047958C2F65E00E94DA00A8014470507032
S113055055954795559547958C2F66E00E94DA008E
S113056008701070A8015595479555954795559570
S113057047958C2F67E00E94DA00CF911F910F916D
S113058008950E94DA000895CF93C82F64E041E0F3
S11305900E9449008C2F65E041E00E9449008C2FA5
S11305A066E041E00E9449008C2F67E041E00E9430
S11305B04900CF9108950F931F93CF93C82F062F0F
S11305C0462F417064E00E94DA0010E0A8014270F6
S11305D05070559547958C2F65E00E94DA00A8016C
S11305E04470507055954795559547958C2F66E006
S11305F00E94DA0008701070A8015595479555952A
S11306004795559547958C2F67E00E94DA00CF9166
S11306101F910F9108950E941604B998B898C0E0EC
S1130620D0E000E610E00F2EFFE6CF2EF0E0DF2E44
S1130630F02D0F2EFEE7AF2EF0E0BF2EF02D0F2E83
S1130640F8E88F2EF0E09F2EF02DFF2401C0DF2D5F
S113065081E062E00E94FE038C2F805D0E947104A1
S1130660C8010E949D04C33081F40E94F403C601B2
S11306700E949D048FEF93EDA0E381509040A04031
S1130680E1F700C000000E94F403B09B19C0DD2311
S1130690B9F4CF5F60E070E084E393E40E94AF04B8
S11306A08FEF99E6A8E181509040A040E1F700C0A7
S11306B0000060E070E084EB92E40E94AF04D1E0BB
S11306C0B09B03C0D13021F201C0DF2D81E062E094
S11306D00E94FE038C2F805D0E947104C8010E9459
S11306E09D04CC23B9F40E94F403C5010E949D0427
S11306F082E061E00E94FE03C4010E949D048FEF2A
S113070093EDA0E381509040A040E1F700C00000C9
S11307100E94F403B19B19C0DD23B9F4C15060E019
S113072070E084E393E40E94B2048FEF99E6A8E1B9
S113073081509040A040E1F700C0000060E070E00C
S113074084EB92E40E94B204D1E0B19B80CFD1301B
S113075009F4BCCF7DCF81E490E060E070E041E03B
S113076050E00E94DA008FE99FE00197F1F700C0A2
S1130770000081E490E060E070E040E050E00E941E
S1130780DA008FE99FE00197F1F700C000000895B7
S1130790CF93C82F682F62956F7081E490E070E06A
S11307A00E94DB0281E490E061E070E040E050E010
S11307B00E94DA000E94AB0381E490E06C2F70E0A9
S11307C00E94DB0281E490E061E070E040E050E0F0
S11307D00E94DA000E94AB038FEC97E00197F1F7D7
S11307E000C00000CF91089581E00E94C8038FE10A
S11307F09EE40197F1F700C000000895982F9150EE
S1130800923060F4662361F0613160F4813019F450
S1130810862F815808C0862F815405C080E803C004
S113082080E801C080E80E94C80308958FEF91EE2C
S1130830A4E081509040A040E1F700C0000081E4B2
S113084090E00E94C40281E490E060E070E041E046
S113085050E00E94490081E490E061E070E041E0F2
S113086050E00E94490081E490E062E070E041E0E1
S113087050E00E94490081E490E062E070E040E0D2
S113088050E00E94DA0082E00E94C803AFE1BEE4B7
S11308901197F1F700C0000088E20E94C8038FECB2
S11308A097E00197F1F700C000008CE00E94C803B4
S11308B0AFECB7E01197F1F700C0000081E00E94AF
S11308C0C8038FE19EE40197F1F700C0000086E0C1
S11308D00E94C803AFECB7E01197F1F700C0000025
S11308E00895CF93C82F682F62956F7081E490E0CC
S11308F070E00E94DB0281E490E061E070E041E09E
S113090050E00E94DA000E94AB0381E490E06C2F77
S113091070E00E94DB0281E490E061E070E041E07D
S113092050E00E94DA000E94AB038FEC97E001973D
S1130930F1F700C00000CF910895CF93DF93EC014D
S11309408881882331F021960E947104899188233B
S1130950D9F7DF91CF9108950E941E0508950E9452
S1130960360508950E94A605089583B78F7B83BF3B
S113097083B7877F83BF83B7816083BF83B78D7F4E
S113098083BF789489B7816089BF089583B78860ED
S113099083BF83B7816083BF83B7846083BF83B71A
S11309A08D7F83BF8FE48CBF789489B7826089BFC1
S11309B0089583B7886083BFBB9A80E48CBF83B7F4
S11309C0816083BF83B78D7F83BF83B7846083BF18
S11309D083B7806183BF089583B7806483BF83B77F
S11309E0886083BFBB9A80E48CBF83B7816083BF78
S11309F083B78D7F83BF83B7846083BF83B78061F0
S1130A0083BF83B7806283BF089583B7806483BF45
S1130A1083B7877F83BFBB9A80E48CBF83B7816031
S1130A2083BF83B78D7F83BF83B7846083BF83B75E
S1130A308F7E83BF83B7806283BF089593B790642A
S1130A4093BF93B7986093BFBB9A8CBF83B7816001
S1130A5083BF83B78D7F83BF83B7846083BF83B72E
S1130A608F7E83BF83B7806283BF0895CF92DF9266
S1130A70EF92FF926B017C018FB582608FBD8EB5C2
S1130A8088608EBD8EB580618EBD8D9A8FE19EE4A7
S1130A9097BD86BDC701B60120E030E044EB52E4C7
S1130AA00E947B0618160CF1C701B60121E63BE053
S1130AB046EB5BE30E94200720E030E040E85FE380
S1130AC00E94170620E030E04AE754E40E94200721
S1130AD020E030E040E85FE30E9416060E947F06B3
S1130AE0DC01CB019BBD8ABD26C0C701B60120E055
S1130AF030E044EB52E40E94160621E63BE046EB6C
S1130B005BE30E94200720E030E040EC5FE30E94BA
S1130B10170620E030E04AE754E40E94200720E072
S1130B2030E040E85FE30E9416060E947F06DC0185
S1130B30CB019BBD8ABD8EB582608EBD8FB58068AA
S1130B408FBDFF90EF90DF90CF900895CF92DF920A
S1130B50EF92FF926B017C018FB582608FBD8EB5E1
S1130B6088608EBD8EB580618EBD8C9A8FE19EE4C7
S1130B7097BD86BDC701B60120E030E044EB52E4E6
S1130B800E947B0618160CF1C701B60121E63BE072
S1130B9046EB5BE30E94200720E030E040E85FE39F
S1130BA00E94170620E030E04AE754E40E94200740
S1130BB020E030E040E85FE30E9416060E947F06D2
S1130BC0DC01CB0199BD88BD26C0C701B60120E078
S1130BD030E044EB52E40E94160621E63BE046EB8B
S1130BE05BE30E94200720E030E040EC5FE30E94DA
S1130BF0170620E030E04AE754E40E94200720E092
S1130C0030E040E85FE30E9416060E947F06DC01A4
S1130C10CB0199BD88BD8EB582608EBD8FB58062D3
S1130C208FBDFF90EF90DF90CF9008955058BB2771
S1130C30AA270ED0CBC0BCD030F0C1D020F031F404
S1130C409F3F11F41EF4B1C00EF4E095E7FBA7C07A
S1130C50E92FCDD080F3BA1762077307840795078D
S1130C6018F071F49EF5E5C00EF4E0950B2EBA2F42
S1130C70A02D0B01B90190010C01CA01A00111249E
S1130C80FF27591B99F0593F50F4503E68F11A164A
S1130C90F040A22F232F342F4427585FF3CF4695DB
S1130CA037952795A795F0405395C9F77EF41F16FD
S1130CB0BA0B620B730B840BBAF09150A1F0FF0FC7
S1130CC0BB1F661F771F881FC2F70EC0BA0F621FB3
S1130CD0731F841F48F4879577956795B795F795A3
S1130CE09E3F08F0B3CF9395880F08F09927EE0F35
S1130CF09795879508952FD008F481E008957FD0C3
S1130D0088F09F5790F0B92F9927B751A0F0D1F0F0
S1130D10660F771F881F991F1AF0BA95C9F712C07A
S1130D20B13081F086D0B1E0089583C0672F782F69
S1130D308827B85F39F0B93FCCF3869577956795E6
S1130D40B395D9F73EF490958095709561957F4F52
S1130D508F4F9F4F0895990F0008550FAA0BE0E895
S1130D60FEEF16161706E807F907C0F01216130669
S1130D70E407F50798F0621B730B840B950B39F4A9
S1130D800A2661F0232B242B252B21F408950A260F
S1130D9009F4A140A6958FEF811D811D089597F94F
S1130DA09F6780E870E060E008959FEF80EC08950D
S1130DB000240A9416161706180609060895002436
S1130DC00A9412161306140605060895092E0394B0
S1130DD0000C11F4882352F0BB0F40F4BF2B11F424
S1130DE060FF04C06F5F7F4F8F4F9F4F089557FD83
S1130DF09058440F551F59F05F3F71F04795880F85
S1130E0097FB991F61F09F3F79F08795089512161B
S1130E1013061406551FF2CF4695F1DF08C01616C7
S1130E2017061806991FF1CF869571056105089478
S1130E300895E894BB2766277727CB0197F908958F
S1130E400BD0C4CFB5DF28F0BADF18F0952309F032
S1130E50A6CFABCF1124EECFCADFA0F3959FD1F379
S1130E60950F50E0551F629FF001729FBB27F00D54
S1130E70B11D639FAA27F00DB11DAA1F649F6627A9
S1130E80B00DA11D661F829F2227B00DA11D621FF8
S1130E90739FB00DA11D621F839FA00D611D221FB2
S1130EA0749F3327A00D611D231F849F600D211D96
S1130EB0822F762F6A2F11249F5750408AF0E1F039
S1130EC088234AF0EE0FFF1FBB1F661F771F881F82
S1130ED091505040A9F79E3F510570F060CFAACFC2
S1130EE05F3FECF3983EDCF3869577956795B7956D
S1130EF0F795E7959F5FC1F7FE2B880F911D969597
S10D0F00879597F90895F894FFCF40
S1130F0A6361727320696E20676172616765006745
S1130F1A61726167652069732066756C6C00746818
S1130F2A65726520617265006E6F20636172730079
S9030000FC
