:100000000C942A000C9447000C9447000C94470071
:100010000C9447000C9447000C9447000C94470044
:100020000C9447000C9447000C9447000C94470034
:100030000C9447000C9447000C9447000C94470024
:100040000C9447000C9447000C9447000C94470014
:100050000C94470011241FBECFE5D8E0DEBFCDBF12
:1000600010E0A0E6B0E0EEECFDE002C005900D92DD
:10007000A037B107D9F710E0A0E7B0E001C01D92AA
:10008000A037B107E1F70E9449000C94E5060C94F3
:100090000000CF93DF9300D000D0CDB7DEB70E9431
:1000A0004B060E9461050F2EF3E08F2E9924F02D50
:1000B0008C0E9D1E0F2EF5E06F2E7724F02D6C0E0A
:1000C0007D1E0F2EFAE02F2E3324F02D8E010F5FB0
:1000D0001F4F0E949E05D8018C938F3FD1F30E9441
:1000E0009F068FEF91EEA4E081509040A040E1F791
:1000F00000C000000F5F1F4F0815190551F7DA8087
:100100009BE2D91611F484010BC0ADE2DA16D9F3E3
:10011000BAE2DB16C1F3EFE2DE1609F0D8C0F3CF86
:100120000E949E05D8018C938F3FD1F30E949F06B9
:100130008FEF91EEA4E081509040A040E1F700C025
:1001400000000F5F1F4F0615170551F72C812D3347
:1001500009F03FC06B8160536B8389818053898331
:100160009BE2D91669F09D1520F0AAE2DA16D1F4C7
:1001700011C0BDE2DB1649F0EFE2DE1699F40EC0C5
:1001800090E07C01E60EF11C0DC090E07C01E61AC7
:10019000F10808C0689F7001112404C00E94C506C0
:1001A000E82EFF24FAE0EF16F10428F48E2D805D8E
:1001B0000E949F06F9C1C701B1010E94D106182F04
:1001C000862F805D0E949F06812F805D0E949F0682
:1001D000EBC189818053898320519B81990F692FBD
:1001E000660F660F690F620F6C839BE2D91669F088
:1001F0009D1520F0AAE2DA16D1F411C0BDE2DB169B
:1002000049F0EFE2DE1699F40EC090E07C01E60EB4
:10021000F11C0DC090E07C01E61AF10808C0689F4F
:100220007001112404C00E94C506E82EFF240E941C
:100230009E05082F8F3FD9F30E949F068FEF91EE06
:10024000A4E081509040A040E1F700C00000C70149
:10025000B1010E94D1060F2EF0E3DF2EF02DD60E55
:10026000182F105DC70164E670E00E94D1060F2EC2
:10027000F0E3BF2EF02DB60E660F862F880F880F85
:10028000680FCD2CC61A0F2EF0E3AF2EF02DAE0C5A
:100290009AE0E916F10420F48A2D0E949F0614C00A
:1002A000A4E6EA16F10438F48D2D0E949F06812FF2
:1002B0000E949F0609C08B2D0E949F068C2D0E94D4
:1002C0009F06812F0E949F060D3311F76DC18D2D62
:1002D00080519981990FC92ECC0CCC0C9C0DC82E45
:1002E000C90ECA820E949E05D82EBFEF8B17D1F38C
:1002F0000E949F068FEF91EEA4E081509040A040B5
:10030000E1F700C0000084010E949E05D8018C9393
:100310008F3FD1F30E949F068FEF91EEA4E08150B2
:100320009040A040E1F700C000000F5F1F4F06158E
:10033000170551F79C819D3309F095C06B8160537F
:100340006B839BE2D91669F09D1520F0AAE2DA16BC
:10035000F1F413C0BDE2DB1651F0EFE2DE16B9F4A2
:1003600011C08C2D90E07C01E60EF11C10C08C2D8C
:1003700090E07C01E61AF1080AC0FC2D6F9F700125
:10038000112405C08C2D0E94C506E82EFF248AE0AA
:10039000E816F10428F48E2D805D0E949F0604C1AA
:1003A00094E6E916F10470F4C701B1010E94D10688
:1003B000182F862F805D0E949F06812F805D0E94EE
:1003C0009F06F2C0A8EEEA16A3E0FA06F0F4C70111
:1003D00064E670E00E94D106162F862F805D0E9491
:1003E0009F06C701B1010E94D106082F862F805DAC
:1003F000110F912F990F990F190F811B0E949F06C2
:10040000802F805D0E949F06CFC0C70168EE73E019
:100410000E94D106162F862F805D0E949F06C7017D
:1004200064E670E00E94D106062F862F805D110FD2
:10043000912F990F990F190F811B0E949F06C701D9
:10044000B1010E94D106182F862F805D000F902FDA
:10045000990F990F090F801B0E949F06812F805DC5
:100460000E949F06A1C090518B81880F682F660F54
:10047000660F680F690F6C83BBE2DB1669F0BD1570
:1004800020F0EAE2DE16F1F413C0FDE2DF1651F0CF
:100490008FE2D816B9F411C08C2D90E07C01E60EE5
:1004A000F11C10C08C2D90E07C01E61AF1080AC006
:1004B0009C2D699F7001112405C08C2D0E94C506DA
:1004C000E82EFF240E949E05082F8F3FD9F30E943B
:1004D0009F068FEF91EEA4E081509040A040E1F79D
:1004E00000C00000C701B1010E94D1060F2EF0E349
:1004F000AF2EF02DA60E182F105DC70164E670E038
:100500000E94D1060F2EF0E3CF2EF02DC60E660FFF
:10051000862F880F880F680FDA2CD61AC70168EE6D
:1005200073E00E94D1060F2EF0E34F2EF02D460E01
:10053000660F862F880F880F680FBC2CB61A0F2EF7
:10054000F0E35F2EF02D5E0C9AE0E916F10420F442
:10055000852D0E949F0626C0A4E6EA16F10438F411
:100560008A2D0E949F06812F0E949F061BC0B8EE15
:10057000EB16B3E0FB0650F48C2D0E949F068D2DE8
:100580000E949F06812F0E949F060CC0842D0E940E
:100590009F068B2D0E949F068D2D0E949F06812F06
:1005A0000E949F060D3381F60E949E058F3FE1F366
:1005B000813411F40E9429068FEF91EEA4E081505E
:1005C0009040A040E1F700C0000080CD843409F4E1
:1005D00071C0853448F4823499F1833408F04DC0F9
:1005E000813409F083C00FC0823651F1833620F484
:1005F000813609F07BC007C0833609F43EC08436DB
:1006000009F074C057C0413069F42AB381E090E02A
:10061000AC0102C0440F551F6A95E2F7BA01622B84
:100620006ABB08952AB381E090E0AC0102C0440F98
:10063000551F6A95E2F7BA01609562236ABB089577
:10064000413069F427B381E090E0AC0102C0440F6F
:10065000551F6A95E2F7BA01622B67BB089527B36D
:1006600081E090E0AC0102C0440F551F6A95E2F7AB
:10067000BA016095622367BB0895413069F424B3E1
:1006800081E090E0AC0102C0440F551F6A95E2F78B
:10069000BA01622B64BB089524B381E090E0AC0101
:1006A00002C0440F551F6A95E2F7BA0160956223B4
:1006B00064BB0895413069F421B381E090E0AC015E
:1006C00002C0440F551F6A95E2F7BA01622B61BB65
:1006D000089521B381E090E0AC0102C0440F551FA2
:1006E0006A95E2F7BA016095622361BB089584348C
:1006F00009F471C0853448F4823499F1833408F0E8
:100700004DC0813409F083C00FC0823651F1833669
:1007100020F4813609F07BC007C0833609F43EC05F
:10072000843609F074C057C0413069F42BB381E0BE
:1007300090E0AC0102C0440F551F6A95E2F7BA0180
:10074000622B6BBB08952BB381E090E0AC0102C03B
:10075000440F551F6A95E2F7BA01609562236BBB9F
:100760000895413069F428B381E090E0AC0102C003
:10077000440F551F6A95E2F7BA01622B68BB0895D2
:1007800028B381E090E0AC0102C0440F551F6A9588
:10079000E2F7BA016095622368BB0895413069F4BD
:1007A00025B381E090E0AC0102C0440F551F6A956B
:1007B000E2F7BA01622B65BB089525B381E090E0B2
:1007C000AC0102C0440F551F6A95E2F7BA0160956B
:1007D000622365BB0895413069F422B381E090E063
:1007E000AC0102C0440F551F6A95E2F7BA01622BB3
:1007F00062BB089522B381E090E0AC0102C0440FD7
:10080000551F6A95E2F7BA016095622362BB0895AD
:10081000843409F43DC0853440F48234F9F08334E3
:1008200050F5813409F040C00CC08236B9F08336EF
:1008300018F48136C9F505C08336E9F08436A1F590
:1008400027C02AB381E090E0AC0102C0440F551FDD
:100850006A95E2F7BA0162276ABB089527B381E07F
:1008600090E0AC0102C0440F551F6A95E2F7BA014F
:10087000622767BB089524B381E090E0AC0102C019
:10088000440F551F6A95E2F7BA01622764BB0895C9
:1008900021B381E090E0AC0102C0440F551F6A957E
:1008A000E2F7BA01622761BB0895843409F451C0AC
:1008B000853440F4823439F18334C0F5813409F051
:1008C0005AC00EC08236F9F0833620F4813609F022
:1008D00052C006C0833651F1843609F04CC039C08D
:1008E00029B381E090E0062E02C0880F991F0A9478
:1008F000E2F730E08223932302C0959587956A95AD
:10090000E2F7982F38C026B381E090E0062E02C0AF
:10091000880F991F0A94E2F730E08223932302C0E4
:10092000959587956A95E2F7982F25C023B381E0C6
:1009300090E0062E02C0880F991F0A94E2F730E07B
:100940008223932302C0959587956A95E2F7982FA5
:1009500012C020B381E090E0062E02C0880F991FDC
:100960000A94E2F730E08223932302C0959587959D
:100970006A95E2F7982F892F08958434D9F0853449
:1009800038F4823499F0833498F48134A1F40CC0A3
:10099000823661F0833618F4813669F405C08336F7
:1009A00039F0843641F406C06ABB089567BB0895E8
:1009B00064BB089561BB0895823471F0833418F4E8
:1009C0008134A9F405C0833459F0843481F40CC017
:1009D0008BB380958BBB08958BB380958BBB0895AB
:1009E0008BB380958BBB08958BB380958BBB08959B
:1009F0008434D9F0853438F4823499F0833498F40F
:100A00008134A1F40CC0823661F0833618F481364B
:100A100069F405C0833639F0843641F406C06BBBF7
:100A2000089568BB089565BB089562BB0895CF9390
:100A3000C82F64E041E00E94E6028C2F65E041E0AF
:100A40000E94E6028C2F66E041E00E94E6028C2FB5
:100A500067E041E00E94E602CF9108950F931F9353
:100A6000CF93C82F062F462F417064E00E94770372
:100A700010E0A80142705070559547958C2F65E0A5
:100A80000E947703A801447050705595479555957D
:100A900047958C2F66E00E94770308701070A801BC
:100AA0005595479555954795559547958C2F67E0F2
:100AB0000E947703CF911F910F9108950E947703B1
:100AC000089584E460E041E00E94E60284E461E08D
:100AD00041E00E94E60284E462E041E00E94E60216
:100AE00084E463E041E00E94E60284E464E040E0E4
:100AF0000E94E60284E465E040E00E94E60284E4AD
:100B000066E040E00E94E60284E467E040E00E9484
:100B1000E60284E464E041E00E945E0584E465E06E
:100B200041E00E945E0584E466E041E00E945E05CB
:100B300084E467E041E00E945E0508950F931F93EF
:100B4000CF93DF93CDB7DEB760970FB6F894DEBFD3
:100B50000FBECDBFDE011196E0E6F0E080E101902E
:100B60000D928150E1F700E084E460E041E00E94F2
:100B7000770384E461E041E00E94770384E462E06B
:100B800041E00E94770384E463E041E00E94770340
:100B900084E4602F40E00E94770310E0612F6C5FD7
:100BA00084E40E945504882361F4E02FF0E0EE0F06
:100BB000FF1FEE0FFF1FE10FF11DEC0FFD1F8181E5
:100BC00004C01F5F143051F70BC060960FB6F89445
:100BD000DEBF0FBECDBFDF91CF911F910F91089562
:100BE0000F5F043009F68FEFF0CF82E490E060E011
:100BF00070E041E050E00E9477038FE99FE00197A9
:100C0000F1F700C0000082E490E060E070E040E0B6
:100C100050E00E9477038FE99FE00197F1F700C051
:100C200000000895682F81E490E070E00E94F804CD
:100C300082E490E061E070E040E050E00E947703E1
:100C40000E94F5058FEC97E00197F1F700C00000D6
:100C5000089581E00E9412068FE19EE40197F1F76A
:100C600000C000000895982F9150923060F46623E0
:100C700061F0613160F4813019F4862F815808C029
:100C8000862F815405C080E803C080E801C080E859
:100C90000E94120608958FEF91EEA4E081509040DB
:100CA000A040E1F700C0000081E490E06FEF70E049
:100CB0000E94BD0482E490E060E070E041E050E01A
:100CC0000E94E60282E490E061E070E041E050E0E2
:100CD0000E94E60282E490E062E070E041E050E0D1
:100CE0000E94E60282E490E062E070E040E050E0C2
:100CF0000E94770388E30E941206AFECB7E01197D9
:100D0000F1F700C000008CE00E9412068FEC97E023
:100D10000197F1F700C0000081E00E941206AFE1E8
:100D2000BEE41197F1F700C0000086E00E941206B1
:100D30008FEC97E00197F1F700C000000895682F4D
:100D400081E490E070E00E94F80482E490E061E0C9
:100D500070E041E050E00E9477030E94F5058FECBF
:100D600097E00197F1F700C000000895CF93DF935B
:100D7000EC018881882331F021960E949F06899199
:100D80008823D9F7DF91CF910895991B79E004C0AA
:100D9000991F961708F0961B881F7A95C9F78095BA
:100DA0000895AA1BBB1B51E107C0AA1FBB1FA617B2
:100DB000B70710F0A61BB70B881F991F5A95A9F704
:0E0DC00080959095BC01CD010895F894FFCF69
:100DCE003738392F3435362A3132332D41303D2BD9
:00000001FF
