:100000000C942A000C9447000C9447000C94470071
:100010000C9447000C9447000C9447000C94470044
:100020000C9447000C9447000C9447000C94470034
:100030000C9447000C9447000C9447000C94470024
:100040000C9447000C9447000C9447000C94470014
:100050000C94470011241FBECFE5D8E0DEBFCDBF12
:1000600010E0A0E6B0E0E4ECFEE002C005900D92E6
:10007000A437B107D9F710E0A4E7B0E001C01D92A2
:10008000A437B107E1F70E9426040C9460070C9492
:100090000000843409F471C0853448F4823499F145
:1000A000833408F04DC0813409F083C00FC082361C
:1000B00051F1833620F4813609F07BC007C08336C6
:1000C00009F43EC0843609F074C057C0413069F469
:1000D0002AB381E090E0AC0102C0440F551F6A953D
:1000E000E2F7BA01622B6ABB08952AB381E090E07F
:1000F000AC0102C0440F551F6A95E2F7BA01609542
:1001000062236ABB0895413069F427B381E090E02F
:10011000AC0102C0440F551F6A95E2F7BA01622B89
:1001200067BB089527B381E090E0AC0102C0440FA3
:10013000551F6A95E2F7BA016095622367BB08957F
:10014000413069F424B381E090E0AC0102C0440F77
:10015000551F6A95E2F7BA01622B64BB089524B378
:1001600081E090E0AC0102C0440F551F6A95E2F7B0
:10017000BA016095622364BB0895413069F421B3EC
:1001800081E090E0AC0102C0440F551F6A95E2F790
:10019000BA01622B61BB089521B381E090E0AC010C
:1001A00002C0440F551F6A95E2F7BA0160956223B9
:1001B00061BB0895843409F471C0853448F48234F5
:1001C00099F1833408F04DC0813409F083C00FC029
:1001D000823651F1833620F4813609F07BC007C0A6
:1001E000833609F43EC0843609F074C057C04130EC
:1001F00069F42BB381E090E0AC0102C0440F551FBD
:100200006A95E2F7BA01622B6BBB08952BB381E0CC
:1002100090E0AC0102C0440F551F6A95E2F7BA01A5
:10022000609562236BBB0895413069F428B381E087
:1002300090E0AC0102C0440F551F6A95E2F7BA0185
:10024000622B68BB089528B381E090E0AC0102C046
:10025000440F551F6A95E2F7BA016095622368BBA7
:100260000895413069F425B381E090E0AC0102C00B
:10027000440F551F6A95E2F7BA01622B65BB0895DA
:1002800025B381E090E0AC0102C0440F551F6A9590
:10029000E2F7BA016095622365BB0895413069F4C5
:1002A00022B381E090E0AC0102C0440F551F6A9573
:1002B000E2F7BA01622B62BB089522B381E090E0BD
:1002C000AC0102C0440F551F6A95E2F7BA01609570
:1002D000622362BB0895843409F43DC0853440F440
:1002E0008234F9F0833450F5813409F040C00CC0F9
:1002F0008236B9F0833618F48136C9F505C08336E5
:10030000E9F08436A1F527C02BB381E090E0AC0181
:1003100002C0440F551F6A95E2F7BA0162276BBB12
:10032000089528B381E090E0AC0102C0440F551F4E
:100330006A95E2F7BA01622768BB089525B381E0A8
:1003400090E0AC0102C0440F551F6A95E2F7BA0174
:10035000622765BB089522B381E090E0AC0102C042
:10036000440F551F6A95E2F7BA01622762BB0895F0
:10037000843409F451C0853440F4823439F1833433
:10038000C0F5813409F05AC00EC08236F9F08336C8
:1003900020F4813609F052C006C0833651F184360C
:1003A00009F04CC039C029B381E090E0062E02C0AC
:1003B000880F991F0A94E2F730E08223932302C04A
:1003C000959587956A95E2F7982F38C026B381E016
:1003D00090E0062E02C0880F991F0A94E2F730E0E1
:1003E0008223932302C0959587956A95E2F7982F0B
:1003F00025C023B381E090E0062E02C0880F991F2C
:100400000A94E2F730E08223932302C09595879502
:100410006A95E2F7982F12C020B381E090E0062E93
:1004200002C0880F991F0A94E2F730E082239323D9
:1004300002C0959587956A95E2F7982F892F0895C0
:100440008434D9F0853438F4823499F0833498F4C4
:100450008134A1F40CC0823661F0833618F4813601
:1004600069F405C0833639F0843641F406C06ABBAE
:10047000089567BB089564BB089561BB08958234F5
:1004800071F0833418F48134A9F405C0833459F031
:10049000843481F40CC08BB380958BBB08958BB3EF
:1004A00080958BBB08958BB380958BBB08958BB3E0
:1004B00080958BBB08958434D9F0853438F4823428
:1004C00099F0833498F48134A1F40CC0823661F041
:1004D000833618F4813669F405C0833639F08436E2
:1004E00041F406C06BBB089568BB089565BB0895D1
:1004F00062BB0895CF93C82F64E041E00E94490099
:100500008C2F65E041E00E9449008C2F66E041E0BD
:100510000E9449008C2F67E041E00E944900CF9182
:1005200008950F931F93CF93C82F062F462F417026
:1005300064E00E94DA0010E0A80142705070559506
:1005400047958C2F65E00E94DA00A8014470507036
:1005500055954795559547958C2F66E00E94DA0092
:1005600008701070A8015595479555954795559574
:1005700047958C2F67E00E94DA00CF911F910F9171
:1005800008950E94DA000895CF93C82F64E041E0F7
:100590000E9449008C2F65E041E00E9449008C2FA9
:1005A00066E041E00E9449008C2F67E041E00E9434
:1005B0004900CF9108950F931F93CF93C82F062F13
:1005C000462F417064E00E94DA0010E0A8014270FA
:1005D0005070559547958C2F65E00E94DA00A80170
:1005E0004470507055954795559547958C2F66E00A
:1005F0000E94DA0008701070A8015595479555952E
:100600004795559547958C2F67E00E94DA00CF916A
:100610001F910F91089581E490E060E070E041E067
:1006200050E00E94DA008FE99FE00197F1F700C0E7
:10063000000081E490E060E070E040E050E00E9463
:10064000DA008FE99FE00197F1F700C000000895FC
:10065000CF93C82F682F62956F7081E490E070E0AF
:100660000E94DB0281E490E061E070E040E050E055
:100670000E94DA000E940B0381E490E06C2F70E08E
:100680000E94DB0281E490E061E070E040E050E035
:100690000E94DA000E940B038FEC97E00197F1F7BC
:1006A00000C00000CF91089581E00E9428038FE1EF
:1006B0009EE40197F1F700C000000895982F915033
:1006C000923060F4662361F0613160F4813019F496
:1006D000862F815808C0862F815405C080E803C04A
:1006E00080E801C080E80E94280308958FEF91EE12
:1006F000A4E081509040A040E1F700C0000081E4F8
:1007000090E00E94C40281E490E060E070E041E08B
:1007100050E00E94490081E490E061E070E041E037
:1007200050E00E94490081E490E062E070E041E026
:1007300050E00E94490081E490E062E070E040E017
:1007400050E00E94DA0082E00E942803AFE1BEE49C
:100750001197F1F700C0000088E20E9428038FEC97
:1007600097E00197F1F700C000008CE00E94280399
:10077000AFECB7E01197F1F700C0000081E00E94F4
:1007800028038FE19EE40197F1F700C0000086E0A6
:100790000E942803AFECB7E01197F1F700C000000A
:1007A0000895CF93C82F682F62956F7081E490E011
:1007B00070E00E94DB0281E490E061E070E041E0E3
:1007C00050E00E94DA000E940B0381E490E06C2F5D
:1007D00070E00E94DB0281E490E061E070E041E0C3
:1007E00050E00E94DA000E940B038FEC97E0019723
:1007F000F1F700C00000CF910895CF93DF93EC0193
:100800008881882331F021960E94D1038991882321
:10081000D9F7DF91CF9108950E9428050895682F98
:10082000772767FD7095872F972F0E94300621E666
:100830003BE046EB5BE30E94BC0620E030E040EC8E
:100840005FE30E949E050E94400508950E94760382
:1008500082E460E041E00E944900C2EE0F2EF0E029
:10086000CF2EF4E2DF2EF4EFEF2EF0E0FF2EF02D8E
:100870000AE610E00F2EF0E6AF2EF0E0BF2EF02DCE
:10088000D2EE3BC01DBC1CBC8C2F0E940F048FE518
:100890009AEE0197F1F700C0000084E460E00E9446
:1008A00067050E947F05BC0180E090E028E237E800
:1008B00040E050E00E941F07A70196010E943E07FA
:1008C0002333310568F482E460E041E00E94DA00FD
:1008D00081E061E00E945E03C5010E94FD030CC03F
:1008E00082E460E040E00E94DA0081E061E00E9482
:1008F0005E03C8010E94FD03CF5FCD331CF2CCE341
:100900001DBC1CBC8C2F0E940F048FE59AEE019732
:10091000F1F700C0000084E460E00E9467050E94D7
:100920007F05BC0180E090E028E237E840E050E03D
:100930000E941F07A70196010E943E07233331053D
:1009400068F482E460E041E00E94DA0081E061E066
:100950000E945E03C5010E94FD030CC082E460E0BA
:1009600040E00E94DA0081E061E00E945E03C8017D
:100970000E94FD03C150C13E19F6CD2FBECF83B7F3
:100980008F7B83BF83B7877F83BF83B7816083BF3C
:1009900083B78D7F83BF789489B7816089BF0895BD
:1009A00083B7886083BF83B7816083BF83B7846068
:1009B00083BF83B78D7F83BF8FE48CBF789489B763
:1009C000826089BF089583B7886083BFBB9A80E443
:1009D0008CBF83B7816083BF83B78D7F83BF83B7AD
:1009E000846083BF83B7806183BF089583B78064C9
:1009F00083BF83B7886083BFBB9A80E48CBF83B713
:100A0000816083BF83B78D7F83BF83B7846083BFDB
:100A100083B7806183BF83B7806283BF089583B744
:100A2000806483BF83B7877F83BFBB9A80E48CBF1A
:100A300083B7816083BF83B78D7F83BF83B78460B3
:100A400083BF83B78F7E83BF83B7806283BF0895E0
:100A500093B7906493BF93B7986093BFBB9A8CBFD2
:100A600083B7816083BF83B78D7F83BF83B7846083
:100A700083BF83B78F7E83BF83B7806283BF0895B0
:100A80008D9A2FB522602FBD2EB528602EBD2EB5B4
:100A900020612EBD2FB520682FBD2EB522602EBD42
:100AA0002FE13EE437BD26BD20E030E04AE754E4C4
:100AB0000E94BC0620E030E040E85FE30E949D0514
:100AC0000E940206DC01CB019BBD8ABD0895CF9335
:100AD000DF93D82FC62F41E00E9449008D2F6C2F45
:100AE00041E00E94DA0085E88A95F1F700008D2F39
:100AF0006C2F40E00E94DA00DF91CF9108951FBC77
:100B000088B7806288BF81EC8EBD08B605FEFDCF38
:100B10002CB53DB588B7806288BF81E88EBD08B628
:100B200005FEFDCF8CB59DB548B7406248BF1EBCE1
:100B30001DBC1CBC821B930B08955058BB27AA27D1
:100B40000ED0E0C0D1D030F0D6D020F031F49F3FAD
:100B500011F41EF4C6C00EF4E095E7FBBCC0E92F0B
:100B6000E2D080F3BA17620773078407950718F07D
:100B700071F49EF5FAC00EF4E0950B2EBA2FA02D5D
:100B80000B01B90190010C01CA01A0011124FF273A
:100B9000591B99F0593F50F4503E68F11A16F04035
:100BA000A22F232F342F4427585FF3CF4695379534
:100BB0002795A795F0405395C9F77EF41F16BA0BF9
:100BC000620B730B840BBAF09150A1F0FF0FBB1FA7
:100BD000661F771F881FC2F70EC0BA0F621F731FF0
:100BE000841F48F4879577956795B795F7959E3F4D
:100BF00008F0B3CF9395880F08F09927EE0F9795DB
:100C00008795089598D088F09F5790F0B92F99272D
:100C1000B751A0F0D1F0660F771F881F991F1AF007
:100C2000BA95C9F712C0B13081F09FD0B1E00895F4
:100C30009CC0672F782F8827B85F39F0B93FCCF375
:100C4000869577956795B395D9F73EF490958095FD
:100C5000709561957F4F8F4F9F4F0895E89409C01D
:100C600097FB3EF490958095709561957F4F8F4FDF
:100C70009F4F9923A9F0F92F96E9BB279395F695F5
:100C8000879577956795B795F111F8CFFAF4BB0F73
:100C900011F460FF1BC06F5F7F4F8F4F9F4F16C0D7
:100CA000882311F096E911C0772321F09EE8872F61
:100CB000762F05C0662371F096E8862F70E060E01D
:100CC0002AF09A95660F771F881FDAF7880F969596
:100CD000879597F9089597F99F6780E870E060E03D
:100CE00008959FEF80EC089500240A9416161706C5
:100CF00018060906089500240A941216130614060D
:100D000005060895092E0394000C11F4882352F06F
:100D1000BB0F40F4BF2B11F460FF04C06F5F7F4F27
:100D20008F4F9F4F089557FD9058440F551F59F00E
:100D30005F3F71F04795880F97FB991F61F09F3FC8
:100D400079F087950895121613061406551FF2CFF1
:100D50004695F1DF08C0161617061806991FF1CF41
:100D600086957105610508940895E894BB27662768
:100D70007727CB0197F908950BD0C4CFB5DF28F0C2
:100D8000BADF18F0952309F0A6CFABCF1124EECF30
:100D9000CADFA0F3959FD1F3950F50E0551F629FD6
:100DA000F001729FBB27F00DB11D639FAA27F00DC4
:100DB000B11DAA1F649F6627B00DA11D661F829FEB
:100DC0002227B00DA11D621F739FB00DA11D621FD0
:100DD000839FA00D611D221F749F3327A00D611DED
:100DE000231F849F600D211D822F762F6A2F1124CF
:100DF0009F5750408AF0E1F088234AF0EE0FFF1F22
:100E0000BB1F661F771F881F91505040A9F79E3F58
:100E1000510570F060CFAACF5F3FECF3983EDCF352
:100E2000869577956795B795F795E7959F5FC1F795
:100E3000FE2B880F911D9695879597F90895629FCF
:100E4000D001739FF001829FE00DF11D649FE00DC2
:100E5000F11D929FF00D839FF00D749FF00D659F23
:100E6000F00D9927729FB00DE11DF91F639FB00D22
:100E7000E11DF91FBD01CF0111240895A1E21A2E31
:100E8000AA1BBB1BFD010DC0AA1FBB1FEE1FFF1F2E
:100E9000A217B307E407F50720F0A21BB30BE40B7E
:100EA000F50B661F771F881F991F1A9469F76095C5
:100EB0007095809590959B01AC01BD01CF0108957F
:040EC000F894FFCFD4
:100EC4006F62737461636C652000636C65616E208E
:040ED40077617900C9
:00000001FF
