:100000000C942A000C9447000C9447000C94470071
:100010000C9447000C9447000C9447000C94470044
:100020000C9447000C9447000C9447000C94470034
:100030000C9447000C9447000C9447000C94470024
:100040000C9447000C9447000C9447000C94470014
:100050000C94470011241FBECFE5D8E0DEBFCDBF12
:1000600010E0A0E6B0E0E8EFFBE002C005900D92E2
:10007000A23DB107D9F710E0A2EDB0E001C01D929A
:10008000A23DB107E1F70E94C4020C94FA050C945A
:100090000000843409F471C0853448F4823499F145
:1000A000833408F04DC0813409F083C00FC082361C
:1000B00051F1833620F4813609F07BC007C08336C6
:1000C00009F43EC0843609F074C057C0413069F469
:1000D0002AB381E090E0AC0102C0440F551F6A953D
:1000E000E2F7BA01622B6ABB08952AB381E090E07F
:1000F000AC0102C0440F551F6A95E2F7BA01609542
:1001000062236ABB0895413069F427B381E090E02F
:10011000AC0102C0440F551F6A95E2F7BA01622B89
:1001200067BB089527B381E090E0AC0102C0440FA3
:10013000551F6A95E2F7BA016095622367BB08957F
:10014000413069F424B381E090E0AC0102C0440F77
:10015000551F6A95E2F7BA01622B64BB089524B378
:1001600081E090E0AC0102C0440F551F6A95E2F7B0
:10017000BA016095622364BB0895413069F421B3EC
:1001800081E090E0AC0102C0440F551F6A95E2F790
:10019000BA01622B61BB089521B381E090E0AC010C
:1001A00002C0440F551F6A95E2F7BA0160956223B9
:1001B00061BB0895843409F471C0853448F48234F5
:1001C00099F1833408F04DC0813409F083C00FC029
:1001D000823651F1833620F4813609F07BC007C0A6
:1001E000833609F43EC0843609F074C057C04130EC
:1001F00069F42BB381E090E0AC0102C0440F551FBD
:100200006A95E2F7BA01622B6BBB08952BB381E0CC
:1002100090E0AC0102C0440F551F6A95E2F7BA01A5
:10022000609562236BBB0895413069F428B381E087
:1002300090E0AC0102C0440F551F6A95E2F7BA0185
:10024000622B68BB089528B381E090E0AC0102C046
:10025000440F551F6A95E2F7BA016095622368BBA7
:100260000895413069F425B381E090E0AC0102C00B
:10027000440F551F6A95E2F7BA01622B65BB0895DA
:1002800025B381E090E0AC0102C0440F551F6A9590
:10029000E2F7BA016095622365BB0895413069F4C5
:1002A00022B381E090E0AC0102C0440F551F6A9573
:1002B000E2F7BA01622B62BB089522B381E090E0BD
:1002C000AC0102C0440F551F6A95E2F7BA01609570
:1002D000622362BB0895843409F43DC0853440F440
:1002E0008234F9F0833450F5813409F040C00CC0F9
:1002F0008236B9F0833618F48136C9F505C08336E5
:10030000E9F08436A1F527C02AB381E090E0AC0182
:1003100002C0440F551F6A95E2F7BA0162276ABB13
:10032000089527B381E090E0AC0102C0440F551F4F
:100330006A95E2F7BA01622767BB089524B381E0AA
:1003400090E0AC0102C0440F551F6A95E2F7BA0174
:10035000622764BB089521B381E090E0AC0102C044
:10036000440F551F6A95E2F7BA01622761BB0895F1
:10037000843409F451C0853440F4823439F1833433
:10038000C0F5813409F05AC00EC08236F9F08336C8
:1003900020F4813609F052C006C0833651F184360C
:1003A00009F04CC039C029B381E090E0062E02C0AC
:1003B000880F991F0A94E2F730E08223932302C04A
:1003C000959587956A95E2F7982F38C026B381E016
:1003D00090E0062E02C0880F991F0A94E2F730E0E1
:1003E0008223932302C0959587956A95E2F7982F0B
:1003F00025C023B381E090E0062E02C0880F991F2C
:100400000A94E2F730E08223932302C09595879502
:100410006A95E2F7982F12C020B381E090E0062E93
:1004200002C0880F991F0A94E2F730E082239323D9
:1004300002C0959587956A95E2F7982F892F0895C0
:100440008434D9F0853438F4823499F0833498F4C4
:100450008134A1F40CC0823661F0833618F4813601
:1004600069F405C0833639F0843641F406C06ABBAE
:10047000089567BB089564BB089561BB08958234F5
:1004800071F0833418F48134A9F405C0833459F031
:10049000843481F40CC08BB380958BBB08958BB3EF
:1004A00080958BBB08958BB380958BBB08958BB3E0
:1004B00080958BBB08958434D9F0853438F4823428
:1004C00099F0833498F48134A1F40CC0823661F041
:1004D000833618F4813669F405C0833639F08436E2
:1004E00041F406C06BBB089568BB089565BB0895D1
:1004F00062BB0895CF93C82F64E041E00E94490099
:100500008C2F65E041E00E9449008C2F66E041E0BD
:100510000E9449008C2F67E041E00E944900CF9182
:1005200008950F931F93CF93C82F062F462F417026
:1005300064E00E94DA0010E0A80142705070559506
:1005400047958C2F65E00E94DA00A8014470507036
:1005500055954795559547958C2F66E00E94DA0092
:1005600008701070A8015595479555954795559574
:1005700047958C2F67E00E94DA00CF911F910F9171
:1005800008950E94DA0008950E949C040E949D0331
:1005900082E468E40E945905C0E00F2EF0E6AF2E19
:1005A000F0E0BF2EF02D0F2EFAE96F2EF0E07F2E37
:1005B000F02D0F2EF9EAEF2EF0E0FF2EF02D0F2E8A
:1005C000FAE88F2EF0E09F2EF02D0F2EFEE64F2E34
:1005D000F0E05F2EF02D0F2EFBE7CF2EF0E0DF2EA8
:1005E000F02D01C0C12FC5010E9423050E94DA032E
:1005F000D82F8F3FD9F38FEF91EEA4E08150904038
:10060000A040E1F700C000008D2F0E94F7048FEF9B
:1006100099E6A8E181509040A040E1F700C00000B9
:100620000E947A041D2F1053C11708F043C0C20165
:100630000E9423058D2F0E94F7048FEF93EDA0E316
:1006400081509040A040E1F700C000000E947A0471
:1006500081E061E00E948404C6010E9423058C2F82
:10066000805D0E94F70482E46C2F48E40E949205AA
:100670008FEF99E6A8E181509040A040E1F700C0DB
:100680000000CF5F1C1720F781E061E00E94840426
:10069000C4010E9423058D2F0E94F7048FEF93ED74
:1006A000A0E381509040A040E1F700C000000E940C
:1006B0007A0498CFC3010E9423058D2F0E94F7046E
:1006C0008FEF93EDA0E381509040A040E1F700C090
:1006D00000000E947A0481E061E00E948404C70166
:1006E0000E9423058C2F805D0E94F70482E46C2F0A
:1006F00048E40E949205C1508FEF99E6A8E181502D
:100700009040A040E1F700C00000C11720F781E051
:1007100061E00E948404C4010E9423058D2F0E9481
:10072000F7048FEF93EDA0E381509040A040E1F7F4
:1007300000C000000E947A0455CF84E460E041E0EC
:100740000E94490084E461E041E00E94490084E4A1
:1007500062E041E00E94490084E463E041E00E94DD
:10076000490084E464E040E00E94490084E465E0DC
:1007700040E00E94490084E466E040E00E944900B5
:1007800084E467E040E00E94490084E464E041E0E2
:100790000E94C10284E465E041E00E94C10284E459
:1007A00066E041E00E94C10284E467E041E00E940B
:1007B000C10208950F931F93CF93DF93CDB7DEB798
:1007C00060970FB6F894DEBF0FBECDBFDE01119665
:1007D000E7EBF0E080E101900D928150E1F700E05D
:1007E00084E460E041E00E94DA0084E461E041E0FA
:1007F0000E94DA0084E462E041E00E94DA0084E4CE
:1008000063E041E00E94DA0084E4602F40E00E944F
:10081000DA0010E0612F6C5F84E40E94B801882345
:1008200061F4E02FF0E0EE0FFF1FEE0FFF1FE10F6E
:10083000F11DEC0FFD1F818104C01F5F143051F7C3
:100840000BC060960FB6F894DEBF0FBECDBFDF9130
:10085000CF911F910F9108950F5F043009F68FEF2C
:10086000F0CF81E490E060E070E041E050E00E9471
:10087000DA008FE99FE00197F1F700C0000081E402
:1008800090E060E070E040E050E00E94DA008FE924
:100890009FE00197F1F700C000000895CF93C82FA3
:1008A000682F62956F7081E490E070E00E94910281
:1008B00081E490E061E070E040E050E00E94DA0006
:1008C0000E94310481E490E06C2F70E00E9491025C
:1008D00081E490E061E070E040E050E00E94DA00E6
:1008E0000E9431048FEC97E00197F1F700C00000FF
:1008F000CF91089581E00E944E048FE19EE401971C
:10090000F1F700C000000895982F9150923060F4E4
:10091000662361F0613160F4813019F4862F8158CB
:1009200008C0862F815405C080E803C080E801C05C
:1009300080E80E944E0408958FEF91EEA4E081506C
:100940009040A040E1F700C0000081E490E00E94E8
:100950007A0281E490E060E070E041E050E00E94C3
:10096000490081E490E061E070E041E050E00E94E5
:10097000490081E490E062E070E041E050E00E94D4
:10098000490081E490E062E070E040E050E00E94C5
:10099000DA0082E00E944E04AFE1BEE41197F1F765
:1009A00000C0000088E20E944E048FEC97E001979F
:1009B000F1F700C000008CE00E944E04AFECB7E0FD
:1009C0001197F1F700C0000081E00E944E048FE112
:1009D0009EE40197F1F700C0000086E00E944E04FB
:1009E000AFECB7E01197F1F700C000000895CF9386
:1009F000C82F682F62956F7081E490E070E00E94CC
:100A0000910281E490E061E070E041E050E00E94FA
:100A1000DA000E94310481E490E06C2F70E00E94C3
:100A2000910281E490E061E070E041E050E00E94DA
:100A3000DA000E9431048FEC97E00197F1F700C0D3
:100A40000000CF910895CF93DF93EC018881882334
:100A500031F021960E94F70489918823D9F7DF911C
:100A6000CF9108956FEF0E9420020895CF93DF93F6
:100A7000CDB7DEB72A970FB6F894DEBF0FBECDBF55
:100A8000DE011196E7ECF0E09AE001900D929150B2
:100A9000E1F7FE01E60FF11D618170E00E945B024B
:100AA0002A960FB6F894DEBF0FBECDBFDF91CF916F
:100AB0000895CF93C82F6C34F9F06D3418F468346E
:100AC00079F505C0683619F06C3651F515C08C2FD4
:100AD00064E041E00E9449008C2F65E041E00E9403
:100AE00049008C2F66E041E00E9449008C2F67E0AE
:100AF00041E00E94490014C08C2F60E041E00E9458
:100B000049008C2F61E041E00E9449008C2F62E097
:100B100041E00E9449008C2F63E041E00E944900BF
:100B2000CF9108950F931F93CF93C82F062F4C3466
:100B3000A9F14D3420F4483409F058C006C04836B5
:100B400021F04C3609F052C029C0402F41708C2F43
:100B500064E00E94DA0010E0A801427050705595E0
:100B600047958C2F65E00E94DA00A8014470507010
:100B700055954795559547958C2F66E00E94DA006C
:100B800008701070A801559547955595479555954E
:100B900047958C2F67E00E94DA0028C0402F4170F3
:100BA0008C2F60E00E94DA0010E0A80142705070C3
:100BB000559547958C2F61E00E94DA00A80144709A
:100BC000507055954795559547958C2F62E00E943A
:100BD000DA0008701070A80155954795559547950E
:100BE000559547958C2F63E00E94DA00CF911F91B5
:080BF0000F910895F894FFCF66
:100BF800666C6F6F72206E756D6265723F007570FE
:100C080020746F20666C6F6F723A0063757272653C
:100C18006E7420666C6F6F723A007265616368204B
:100C2800746F20666C6F6F723A00646F776E207411
:100C38006F20666C6F6F723A0063757272656E74BE
:100C480020666C6F6F72003738392F3435362A3189
:100C580032332D41303D2BC0F9A4B0999282B8802F
:020C68009000FA
:00000001FF
