S010000054686520736166652E7372656334
S11300000C942A000C9447000C9447000C9447006D
S11300100C9447000C9447000C9447000C94470040
S11300200C9447000C9447000C9447000C94470030
S11300300C9447000C9447000C9447000C94470020
S11300400C9447000C9447000C9447000C94470010
S11300500C94470011241FBECFE5D8E0DEBFCDBF0E
S113006010E0A0E6B0E0E6EEFAE002C005900D92E2
S1130070A43CB107D9F710E0A4ECB0E001C01D9294
S1130080A43CB107E1F70E9466040C9471050C943A
S11300900000843409F471C0853448F4823499F141
S11300A0833408F04DC0813409F083C00FC0823618
S11300B051F1833620F4813609F07BC007C08336C2
S11300C009F43EC0843609F074C057C0413069F465
S11300D02AB381E090E0AC0102C0440F551F6A9539
S11300E0E2F7BA01622B6ABB08952AB381E090E07B
S11300F0AC0102C0440F551F6A95E2F7BA0160953E
S113010062236ABB0895413069F427B381E090E02B
S1130110AC0102C0440F551F6A95E2F7BA01622B85
S113012067BB089527B381E090E0AC0102C0440F9F
S1130130551F6A95E2F7BA016095622367BB08957B
S1130140413069F424B381E090E0AC0102C0440F73
S1130150551F6A95E2F7BA01622B64BB089524B374
S113016081E090E0AC0102C0440F551F6A95E2F7AC
S1130170BA016095622364BB0895413069F421B3E8
S113018081E090E0AC0102C0440F551F6A95E2F78C
S1130190BA01622B61BB089521B381E090E0AC0108
S11301A002C0440F551F6A95E2F7BA0160956223B5
S11301B061BB0895843409F471C0853448F48234F1
S11301C099F1833408F04DC0813409F083C00FC025
S11301D0823651F1833620F4813609F07BC007C0A2
S11301E0833609F43EC0843609F074C057C04130E8
S11301F069F42BB381E090E0AC0102C0440F551FB9
S11302006A95E2F7BA01622B6BBB08952BB381E0C8
S113021090E0AC0102C0440F551F6A95E2F7BA01A1
S1130220609562236BBB0895413069F428B381E083
S113023090E0AC0102C0440F551F6A95E2F7BA0181
S1130240622B68BB089528B381E090E0AC0102C042
S1130250440F551F6A95E2F7BA016095622368BBA3
S11302600895413069F425B381E090E0AC0102C007
S1130270440F551F6A95E2F7BA01622B65BB0895D6
S113028025B381E090E0AC0102C0440F551F6A958C
S1130290E2F7BA016095622365BB0895413069F4C1
S11302A022B381E090E0AC0102C0440F551F6A956F
S11302B0E2F7BA01622B62BB089522B381E090E0B9
S11302C0AC0102C0440F551F6A95E2F7BA0160956C
S11302D0622362BB0895843409F43DC0853440F43C
S11302E08234F9F0833450F5813409F040C00CC0F5
S11302F08236B9F0833618F48136C9F505C08336E1
S1130300E9F08436A1F527C02AB381E090E0AC017E
S113031002C0440F551F6A95E2F7BA0162276ABB0F
S1130320089527B381E090E0AC0102C0440F551F4B
S11303306A95E2F7BA01622767BB089524B381E0A6
S113034090E0AC0102C0440F551F6A95E2F7BA0170
S1130350622764BB089521B381E090E0AC0102C040
S1130360440F551F6A95E2F7BA01622761BB0895ED
S1130370843409F451C0853440F4823439F183342F
S1130380C0F5813409F05AC00EC08236F9F08336C4
S113039020F4813609F052C006C0833651F1843608
S11303A009F04CC039C029B381E090E0062E02C0A8
S11303B0880F991F0A94E2F730E08223932302C046
S11303C0959587956A95E2F7982F38C026B381E012
S11303D090E0062E02C0880F991F0A94E2F730E0DD
S11303E08223932302C0959587956A95E2F7982F07
S11303F025C023B381E090E0062E02C0880F991F28
S11304000A94E2F730E08223932302C095958795FE
S11304106A95E2F7982F12C020B381E090E0062E8F
S113042002C0880F991F0A94E2F730E082239323D5
S113043002C0959587956A95E2F7982F892F0895BC
S11304408434D9F0853438F4823499F0833498F4C0
S11304508134A1F40CC0823661F0833618F48136FD
S113046069F405C0833639F0843641F406C06ABBAA
S1130470089567BB089564BB089561BB08958234F1
S113048071F0833418F48134A9F405C0833459F02D
S1130490843481F40CC08BB380958BBB08958BB3EB
S11304A080958BBB08958BB380958BBB08958BB3DC
S11304B080958BBB08958434D9F0853438F4823424
S11304C099F0833498F48134A1F40CC0823661F03D
S11304D0833618F4813669F405C0833639F08436DE
S11304E041F406C06BBB089568BB089565BB0895CD
S11304F062BB0895CF93C82F64E041E00E94490095
S11305008C2F65E041E00E9449008C2F66E041E0B9
S11305100E9449008C2F67E041E00E944900CF917E
S113052008950F931F93CF93C82F062F462F417022
S113053064E00E94DA0010E0A80142705070559502
S113054047958C2F65E00E94DA00A8014470507032
S113055055954795559547958C2F66E00E94DA008E
S113056008701070A8015595479555954795559570
S113057047958C2F67E00E94DA00CF911F910F916D
S113058008950E94DA0008958EBB1FBA6DBBE29AEB
S1130590E19AE199FECF08958EBB1FBAE09A8DB31C
S11305A0089584E460E041E00E94490084E461E04D
S11305B041E00E94490084E462E041E00E94490075
S11305C084E463E041E00E94490084E464E040E0A4
S11305D00E94490084E465E040E00E94490084E40C
S11305E066E040E00E94490084E467E040E00E9445
S11305F0490084E464E041E00E94C10284E465E0CF
S113060041E00E94C10284E466E041E00E94C1022C
S113061084E467E041E00E94C10208950F931F93B0
S1130620CF93DF93CDB7DEB760970FB6F894DEBFF4
S11306300FBECDBFDE011196E0E6F0E080E101904F
S11306400D928150E1F700E084E460E041E00E9413
S1130650DA0084E461E041E00E94DA0084E462E0CC
S113066041E00E94DA0084E463E041E00E94DA00A1
S113067084E4602F40E00E94DA0010E0612F6C5F98
S113068084E40E94B801882361F4E02FF0E0EE0FC7
S1130690FF1FEE0FFF1FE10FF11DEC0FFD1F818106
S11306A004C01F5F143051F70BC060960FB6F89466
S11306B0DEBF0FBECDBFDF91CF911F910F91089583
S11306C00F5F043009F68FEFF0CF81E490E060E033
S11306D070E041E050E00E94DA008FE99FE001976A
S11306E0F1F700C0000081E490E060E070E040E0D9
S11306F050E00E94DA008FE99FE00197F1F700C013
S113070000000895CF93C82F682F62956F7081E41D
S113071090E070E00E94910281E490E061E070E07A
S113072040E050E00E94DA000E94650381E490E01A
S11307306C2F70E00E94910281E490E061E070E02F
S113074040E050E00E94DA000E9465038FEC97E0DD
S11307500197F1F700C00000CF91089581E00E9455
S113076082038FE19EE40197F1F700C00000089531
S1130770982F9150923060F4662361F0613160F4F7
S1130780813019F4862F815808C0862F815405C002
S113079080E803C080E801C080E80E9482030895D5
S11307A08FEF91EEA4E081509040A040E1F700C0AB
S11307B0000081E490E00E947A0281E490E060E02D
S11307C070E041E050E00E94490081E490E061E083
S11307D070E041E050E00E94490081E490E062E072
S11307E070E041E050E00E94490081E490E062E062
S11307F070E040E050E00E94DA0082E00E94820350
S1130800AFE1BEE41197F1F700C0000088E20E9456
S113081082038FEC97E00197F1F700C000008CE0B1
S11308200E948203AFECB7E01197F1F700C000001B
S113083081E00E9482038FE19EE40197F1F700C0FA
S1130840000086E00E948203AFECB7E01197F1F755
S113085000C000000895CF93C82F682F62956F7071
S113086081E490E070E00E94910281E490E061E014
S113087070E041E050E00E94DA000E94650381E4E8
S113088090E06C2F70E00E94910281E490E061E0BE
S113089070E041E050E00E94DA000E9465038FECB2
S11308A097E00197F1F700C00000CF910895CF932E
S11308B0DF93EC018881882331F021960E942B0478
S11308C089918823D9F7DF91CF910895CF93DF934E
S11308D000D000D0CDB7DEB70E94D0030E94D10271
S11308E0CC246894C1F8DD240F2EF0E74F2EF0E0FD
S11308F05F2EF02D0F2EF5E0AF2EBB24F02DAC0EA5
S1130900BD1E0F2EFDE96F2EF0E07F2EF02D0F2E71
S1130910FAE78F2EF0E09F2EF02D0F2EF8EB2F2EFE
S1130920F0E03F2EF02D80E290E00E94CC028F3F59
S1130930B9F5C2010E9457040F2EF2E2EF2EFF24F4
S1130940F02D0E940E03182F8F3FD9F30E942B0421
S11309508FEF94E3ACE081509040A040E1F700C0F9
S1130960000080E10E9482038AE20E942B048FEF40
S113097094E3ACE081509040A040E1F700C0000057
S1130980C701612F0E94C4020894E11CF11C96E285
S1130990E916F104B1F680E290E060E00E94C4023E
S11309A0DD2009F6EE24EA94EC82EB82EA82E98205
S11309B00E94AE03C4010E9457048E010F5F1F4FB3
S11309C00E940E03D8018C938F3FD1F30E942B0415
S11309D08FEF94E3ACE081509040A040E1F700C079
S11309E0000080E10E9482038AE20E942B040F5FD0
S11309F01F4F0A151B0521F7198182E290E00E941E
S1130A00CC02181721F51A8183E290E00E94CC02EF
S1130A101817E9F41B8184E290E00E94CC021817B5
S1130A20B1F41C8185E290E00E94CC02181779F49D
S1130A300E94AE0386E890E00E94570482E061E0E1
S1130A400E94B80383E990E00E94570447C0CA9407
S1130A5039F10E94AE03C3010E9457048FEF99E657
S1130A60A8E181509040A040E1F700C0000082E07E
S1130A7061E00E94B8038CEA90E00E9457048C2D38
S1130A80805D0E942B048FEF99E6A8E1815090408D
S1130A90A040E1F700C00000DD2009F044CF84CF7E
S1130AA00E94AE03C3010E9457048FEF99E6A8E1A8
S1130AB081509040A040E1F700C0000082E061E076
S1130AC00E94B803C1010E9457048FEF99E6A8E180
S1130AD081509040A040E1F700C00000DD24D39491
S1090AE022CFF894FFCFC1
S1130AE63132332D3435362A3738392F41303D2BC0
S1130AF673657420706173733A00636865636B2071
S1130B06706173733A00636F727265637420706107
S1130B1673730073616665206F70656E0057726F3C
S1130B266E672070617373776F726400747269659F
S1130B3673206C6566743A007361666520636C6F36
S1070B4673650000CF
S9030000FC
